:100000000C945B010C9483010C9483010C94830188
:100010000C9483010C9483010C9483010C9435039C
:100020000C9483010C9483010C9483010C94830140
:100030000C9483010C9483010C9483010C94830130
:100040000C94B70C0C9483010C94D0020C94AA026B
:100050000C9483010C9483010C9483010C94830110
:100060000C9483010C9483015704570422052E0538
:100070006605BC05FA0538068406D206A108A10863
:100080000E074E079907A108DE07650968096B0985
:100090006E097109740977097A097D098009830954
:1000A000860989098C098F0992099509424F4D45A6
:1000B0002053455249414C20495220524541445910
:1000C000002C002C004E45433120004E454331208A
:1000D0005245504541540020004C454E3A00200006
:1000E000414444523A005245504541540020005288
:1000F000415720004552524F523A20524543562014
:100100004F564552464C4F57004552524F523A2097
:100110005245435620504152534552004552524F8A
:10012000523A204E4543312056414C5545205241CC
:100130004E4745004552524F523A2053594E544172
:1001400058204E454331004552524F523A20494EB5
:1001500056414C49442056414C5545004552524F5A
:10016000523A20494E56414C4944204C454E004598
:1001700052524F523A20494E56414C494420414434
:100180004452455353004552524F522050524F4E05
:10019000544F004552524F523A2053594E544158F1
:1001A000004552524F523A20494E50555420425524
:1001B00046464552204F564552464C4F57004255F1
:1001C00054544F4E3200425554544F4E31004C451A
:1001D000474F0050524F4E544F0044454E4F4E0033
:1001E00053484152500044495348004D49545355D7
:1001F00042495348490053414E594F004C47004132
:10020000495741005748594E5445520053414D53A8
:10021000554E47004A56430050414E41534F4E49B8
:100220004300534F4E59004E45430052433600524F
:100230004335004552524F523A206E756D626572D9
:100240003A20004552524F523A204E4F5420494DC9
:10025000504C454D454E54454400000000002400DC
:1002600027002A0000000000250028002B000000C5
:1002700000002300260029000404040404040404EC
:100280000202020202020303030303030102040841
:1002900010204080010204081020010204081020F0
:1002A0000000000800020100000304070000000035
:1002B000000000002B1811241FBECFEFD8E0DEBFD6
:1002C000CDBF26E0AAE4B1E001C01D92AF3EB20767
:1002D000E1F711E0A0E0B1E0ECEAF9E302C005903B
:1002E0000D92AA34B107D9F711E0CBE5D1E004C0F3
:1002F0002197FE010E947D1CCA35D107C9F70E94D3
:10030000010D0C94D41C0C940000CF92DF92EF925C
:10031000FF920F931F93CF93DF936C017A018B01B0
:10032000C0E0D0E0CE15DF0581F0D8016D918D01E0
:10033000D601ED91FC910190F081E02DC601099567
:10034000892B11F02196EECF7E01C701DF91CF916D
:100350001F910F91FF90EF90DF90CF900895089537
:1003600080E090E00895FC01538D448D252F30E00E
:10037000842F90E0821B930B541710F0CF960895B2
:1003800001970895FC01918D828D981761F0828DFF
:10039000DF01A80FB11D5D968C91928D9F5F9F73B9
:1003A000928F90E008958FEF9FEF0895FC01918D5B
:1003B000828D981731F0828DE80FF11D858D90E0C8
:1003C00008958FEF9FEF0895FC01918D228D892F65
:1003D00090E0805C9F4F821B91098F73992708954D
:1003E00084E795E00E94E40121E0892B09F420E0F4
:1003F000822F0895FC01848DDF01A80FB11DA35A3F
:10040000BF4F2C91848D90E001968F739927848F34
:10041000A689B7892C93A089B1898C918370806457
:100420008C93938D848D981306C00288F389E02DF8
:1004300080818F7D80830895EF92FF920F931F93A9
:10044000CF93DF93EC0181E0888F9B8D8C8D981387
:1004500005C0E889F989808185FD26C0F62E0B8DBF
:1004600010E00F5F1F4F0F731127E02E8C8DE812E5
:100470000CC00FB607FCFACFE889F989808185FFA7
:10048000F5CFCE010E94FA01F1CF8B8DFE01E80F6E
:10049000F11DE35AFF4FF0829FB7F8940B8FEA8962
:1004A000FB89808180620AC09FB7F894EE89FF893A
:1004B0006083E889F98980818370806480839FBF2D
:1004C00081E090E0DF91CF911F910F91FF90EF902D
:1004D0000895CF93DF93EC01888D8823C9F0EA89D2
:1004E000FB89808185FD05C0A889B9898C9186FD2D
:1004F0000FC00FB607FCF5CF808185FFF2CFA8892A
:10050000B9898C9185FFEDCFCE010E94FA01E7CF2A
:10051000DF91CF91089580E090E0892B29F00E942F
:10052000F00181110C940000089590ED980F9A301D
:1005300068F09FEB980F963010F4875308959FE969
:10054000980F963010F4875508950895892F0895CF
:100550000E94C11C1F920F920FB60F9211242F936D
:100560003F934F935F936F937F938F939F93AF933B
:10057000BF93EF93FF9384E795E00E94FA01FF9108
:10058000EF91BF91AF919F918F917F916F915F910B
:100590004F913F912F910F900FBE0F901F90189584
:1005A0001F920F920FB60F9211242F938F939F9348
:1005B000EF93FF93E0918405F09185058081E091B0
:1005C0008A05F0918B0582FD12C0908180918D0586
:1005D0008F5F8F7320918E05821751F0E0918D050A
:1005E000F0E0EC58FA4F958F80938D0501C0808123
:1005F000FF91EF919F918F912F910F900FBE0F90D0
:100600001F9018958F929F92AF92BF92CF92DF92D8
:10061000EF92FF926B017C010E94580C4B015C0130
:1006200084E0C81AD108E108F108C80CD91CEA1CFA
:10063000FB1CC814D904EA04FB0438F40E94580CCB
:1006400086169706A806B906C8F30E94580C6C15C2
:100650007D058E059F05C8F3FF90EF90DF90CF904A
:10066000BF90AF909F908F9008951F920F920FB6FA
:100670000F9211242F933F934F935F936F937F9328
:100680008F939F93AF93BF93EF93FF938091120645
:100690000E942C0B20911606309117062F5F3F4FBA
:1006A000309317062093160690911506953618F08C
:1006B00096E090931106909111069430C9F128F4B8
:1006C000923069F09330D1F05EC0953009F451C09A
:1006D000963009F058C091E09093E20651C0811124
:1006E00052C020911606309117062436310508F4C1
:1006F00042C01092E206109215061CC0813009F02B
:1007000042C0E091150691E09E0F90931506F0E02F
:100710002091160630911706EE0FFF1FEF5EF94F7E
:1007200030872783109217061092160694E029C08E
:10073000811117C0E091150691E09E0F9093150668
:10074000F0E02091160630911706EE0FFF1FEF5EC6
:10075000F94F30872783109217061092160693E000
:1007600010C020911606309117062536310558F035
:1007700007C0811108C0109217061092160603C018
:1007800095E090931106909114069923B9F0811188
:100790000AC080911306882321F08091130661E03E
:1007A00009C02D9A0BC080911306882331F08091E7
:1007B000130660E00E94550B01C02D98FF91EF9148
:1007C000BF91AF919F918F917F916F915F914F9169
:1007D0003F912F910F900FBE0F901F901895CF92C1
:1007E000DF92EF92FF92CF93DF93EC01072E000C84
:1007F000880B990B0E942D1B6B017C0120E030E0DF
:1008000040E45FE30E94DD1B20E030E048E452E476
:100810000E94831A0E94F51AC617D707D4F020E069
:1008200030E040EA5FE3C701B6010E94DD1B20E033
:1008300030E048E452E40E94831A20E030E040E8CF
:100840005FE30E94121A0E94F51A21E06C177D07DF
:100850000CF420E0822F90E0DF91CF91FF90EF9099
:10086000DF90CF9008952F923F924F925F926F92B8
:100870007F928F929F92AF92BF92CF92DF92EF9230
:10088000FF920F931F93CF93DF936C014A015B019B
:10089000E90161E087E00E94550BF6013197E131F3
:1008A000F10508F04EC4EC5CFF4F0C947D1C011167
:1008B0000CC0209161053091620581E090E0821BBF
:1008C000930B9093620580936105219781E090E0FE
:1008D0000C2E02C0880F991F0A94E2F7809590951C
:1008E000092E000CAA0BBB0B88229922AA22BB223C
:1008F00080916105909162050C2E02C0880F991FAE
:100900000A94E2F7092E000CAA0BBB0B882A992A3D
:10091000AA2ABB2A84E290E0CA94CD2809F03FC0FD
:100920000E94C00B89E793E00E94410A89E793E0A7
:100930000E94530A89E793E00E94410AC12CD12CFE
:100940007601C39404C0CC0CDD1CEE1CFF1CCA95C0
:10095000D2F7C114D104E104F10409F429C3D5018B
:10096000C4018C219D21AE21BF21892B8A2B8B2B89
:1009700049F089E793E00E94530A89E793E00E94D7
:10098000410A08C089E793E00E94410A89E793E0A1
:100990000E94530AF694E794D794C794DACF0E9442
:1009A000C00B8AE69AE00E94410A89E793E00E9420
:1009B000530A8CEB91E00E94410A8CEB91E00E947B
:1009C000530AC12CD12C7601C39404C0CC0CDD1C7D
:1009D000EE1CFF1CCA95D2F7412C512C32014394D6
:1009E000C114D104E104F10409F4E2C284E0481620
:1009F00051046104710419F0CCEBD1E002C0C8E7E6
:100A0000D3E0D501C4018C219D21AE21BF21892BCA
:100A10008A2B8B2B39F0CE010E94410ACE010E9415
:100A2000530A06C0CE010E94530ACE010E94410A19
:100A30002FEF421A520A620A720AF694E794D79488
:100A4000C794CECFAE01002321F06FEF7FEFCB0133
:100A500002C0C501B4010E94E90B7BC388E290E0AB
:100A60000E94C00B80E699E00E94410A88E592E06E
:100A70000E94530A2197C12CD12C7601C39404C043
:100A8000CC0CDD1CEE1CFF1CCA95D2F7C114D1049E
:100A9000E104F10409F45DC3D501C4018C219D2159
:100AA000AE21BF21892B8A2B8B2B19F080EB94E090
:100AB00002C088E592E00E94410A88E592E00E9427
:100AC000530AF694E794D794C794E0CF83E290E07A
:100AD0000E94C00B8EEA9DE00E94410A86ED96E0DE
:100AE0000E94530AC0E1D0E0412C90E8592E612CBD
:100AF000712C6701E12CF12C86EF91E00E94410AF4
:100B0000D701C60184219521A621B721892B8A2BE3
:100B10008B2B19F08CED94E002C080E991E00E94EB
:100B2000530A7694679457944794219729F7C0E223
:100B3000D0E0C12CD12CE12C00E8F02E86EF91E022
:100B40000E94410AD501C4018C219D21AE21BF2103
:100B5000892B8A2B8B2B19F08CED94E002C080E955
:100B600091E00E94530AF694E794D794C794219792
:100B700029F786EF91E01AC286E290E00E94C00B4E
:100B800080E49FE10E94410A80EA9FE00E94530AAC
:100B90002197C12CD12C7601C39404C0CC0CDD1C50
:100BA000EE1CFF1CCA95D2F7C114D104E104F10474
:100BB000F1F0D501C4018C219D21AE21BF21892BEB
:100BC0008A2B8B2B39F088E592E00E94410A80E461
:100BD00096E006C088E592E00E94410A86E292E033
:100BE0000E94530AF694E794D794C794DDCF88E522
:100BF00092E0DCC186E290E00E94C00B88E893E1BD
:100C00000E94410A88E893E10E94530A2197C12C6F
:100C1000D12C7601C39404C0CC0CDD1CEE1CFF1C4F
:100C2000CA95D2F7C114D104E104F104F1F0D50161
:100C3000C4018C219D21AE21BF21892B8A2B8B2BB6
:100C400039F080E392E00E94410A80E496E006C019
:100C500080E392E00E94410A80E392E00E94530AFE
:100C6000F694E794D794C794DDCF80E392E09EC1D9
:100C700086E290E00E94C00B8EEE92E00E94410A54
:100C80008EEE92E00E94530A82E29BE00E94410AAB
:100C900082E29BE00E94530A2197C12CD12C76015D
:100CA000C39404C0CC0CDD1CEE1CFF1CCA95D2F70B
:100CB000C114D104E104F104F1F0D501C4018C2187
:100CC0009D21AE21BF21892B8A2B8B2B39F08EEEF3
:100CD00092E00E94410A86E698E006C08EEE92E01D
:100CE0000E94410A8EEE92E00E94530AF694E79425
:100CF000D794C794DDCF8EEE92E00E94410A8EEE2B
:100D000092E00E94530A25C286E290E00E94C00B46
:100D100080E692E20E94410A84E991E10E94530A2E
:100D2000CAE1D0E0C12CD12CE12C52E0F52E84EFA9
:100D300091E00E94410AD701C601807C9E7EA77285
:100D4000B270892B8A2B8B2B19F088E592E002C0B8
:100D500084EA96E00E94530AF694E794D794C794E5
:100D6000219729F7880C991CCFE0D0E084EF91E01F
:100D70000E94410A97FE03C088E592E002C084EA1F
:100D800096E00E94530A880C991C219779F784EF0A
:100D900091E00E94410A84EA96E00E94530A84EF9F
:100DA00091E004C186E290E00E94C00B80E49FE1E4
:100DB0000E94410A80EA9FE00E94530A88E592E07F
:100DC0000E94410A2197C12CD12C7601C39404C002
:100DD000CC0CDD1CEE1CFF1CCA95D2F7C114D1044B
:100DE000E104F10409F4E4C0D501C4018C219D2182
:100DF000AE21BF21892B8A2B8B2B19F080E496E042
:100E000002C086E292E00E94530A88E592E00E94C6
:100E1000410AF694E794D794C794E0CF88E390E032
:100E20000E94C00B80E991E00E94410A84ED97E1A5
:100E30000E94530A2197C12CD12C7601C39404C07F
:100E4000CC0CDD1CEE1CFF1CCA95D2F7C114D104DA
:100E5000E104F104F1F0D501C4018C219D21AE2102
:100E6000BF21892B8A2B8B2B39F080E991E00E94DE
:100E7000410A84EA96E006C080E991E00E94410AB6
:100E800080EF9AE00E94530AF694E794D794C794AF
:100E9000DDCF80E991E00E94410A5BC186E290E0EB
:100EA0000E94C00B2197412C512C3201439404C065
:100EB000440C551C661C771CCA95D2F7C3E0D0E0E1
:100EC00073016201C114D104E104F104F1F0D7010E
:100ED000C60188219921AA21BB21892B8A2B8B2B22
:100EE00039F085EF90E00E94410A8DE097E006C05E
:100EF00085EF90E00E94410A8BE193E00E94530A43
:100F0000F694E794D794C794DDCF85EF90E00E94E4
:100F1000410A8BE193E00E94530A68E270E080E0AE
:100F200090E00E947D0C809453E09526219741F635
:100F300010C186E290E00E94C00B8CE291E00E941A
:100F4000410A8EEE92E00E94530A2197C12CD12CC7
:100F50007601C39404C0CC0CDD1CEE1CFF1CCA95AA
:100F6000D2F7C114D104E104F104F1F0D501C401B8
:100F70008C219D21AE21BF21892B8A2B8B2B39F00F
:100F80008CE291E00E94410A88E097E006C08CE282
:100F900091E00E94410A8EEE92E00E94530AF6947C
:100FA000E794D794C794DDCF8CE291E00E94410A88
:100FB0008091B0008F7D8093B000CBC086E290E03E
:100FC0000E94C00B90925B0580925A0581E080934D
:100FD0005C0510925D0510925E0520E130E08EE127
:100FE0009FE040E050E860E070E0AA24BB24750177
:100FF0006401C422D522E622F722CD28CE28CF28AC
:1010000019F0875D9D4F02C0895F9E4F7695679569
:10101000579547952150310951F78E5F9B4F90931B
:10102000600580935F0522E0C22E24E0D22EE12CE1
:10103000F12C32E8832E3CE3932EAA24A394B12C06
:10104000C0E1D0E001E010E08EE990E00E94410AAA
:1010500080915D05882309F454C08131C0F49E015C
:10106000281B3109C901980102C0220F331F8A953C
:10107000E2F780915A0590915B0582239323892B97
:1010800019F487E091E041C089E292E03EC080918E
:101090005C058823B1F180915E05823068F480910F
:1010A0005F0590916005A5019401281B390B41094A
:1010B0005109DA01C90129C08250823010F58091AE
:1010C0005B05282E22948FE02822312CD101A370B9
:1010D000BB271496AA0FBB1F80915F0590916005F6
:1010E00026013701481A590A6108710820E83EE3D1
:1010F0000E94831CDC01CB01840D951DA61DB71D2C
:1011000004C082E094E0A0E0B0E00E94530A809125
:101110005D058F5F80935D05823138F080915E05BB
:101120008F5F80935E0510925D0580915E05882338
:1011300009F48ACF90915C05992359F0853048F4E1
:1011400083CF60E087E00E94550B83E492E00E9429
:10115000650A60E087E0DF91CF911F910F91FF90CA
:10116000EF90DF90CF90BF90AF909F908F907F9047
:101170006F905F904F903F902F900C94550BDC0137
:10118000ED91FC9111972081222331F0213224F43A
:101190003196ED93FC93F3CF0895EF92FF920F9366
:1011A0001F93CF93DF9300D0CDB7DEB78C017B01C7
:1011B0000E94BF08F801808191819A838983A701E9
:1011C000BE016F5F7F4F0E945D1829813A81F8014F
:1011D000408151814217530791F483E392E00E94CA
:1011E000140AF801808191810E942F0A82E191E026
:1011F0000E942F0A60E070E080E090E003C0F801F8
:10120000318320830F900F90DF91CF911F910F9129
:10121000FF90EF900895CF92DF92EF92FF920F939D
:101220001F93CF93DF936115710511F480E021C006
:10123000DB012C912223D1F38B017C010E94BF089A
:10124000F80101900020E9F73197EF01C01BD10BA5
:10125000F701C080D180AE01B801C6010E94C61C52
:10126000892B21F7F601EC0FFD1FD701ED93FC93BD
:1012700081E0DF91CF911F910F91FF90EF90DF9070
:10128000CF9008958295982F9C7C392F369536956E
:10129000282F237344E0249FC0011124932F982BFF
:1012A000292F2A7A2695892F8575880F822B0895F4
:1012B00010925905019781319105E8F58B5B9F4F9D
:1012C000FC014BE050E00C947D1C6FE272E02FC0FB
:1012D0006BE272E02CC067E272E029C062E272E069
:1012E00026C068E172E023C064E172E020C06CE0D7
:1012F00072E01DC064E072E01AC06FEF71E017C0C9
:101300006CEF71E014C066EF71E011C06BEE71E03C
:101310000EC066EE71E00BC060EE71E008C06AEDD1
:1013200071E005C063ED71E002C06EEC71E08EE427
:1013300095E00C947C1980E090E00895FF920F9363
:101340001F93CF93DF938C01FC0180810E94950253
:10135000C82FF80181810E949502D0E0DC2FCC27B4
:10136000D295D07FD82BF80182810E949502F82E69
:10137000F80183810E949502F0E1FF9E9001112403
:10138000AE01482BCA01822B932BDF91CF911F9185
:101390000F91FF900895DC01ED91FC9111979081E0
:1013A000993011F09F7D29F431961196FC93EE93BC
:1013B000F3CF089590ED980F9A3058F09FEB980F67
:1013C000963038F09FE9980F81E0963018F080E071
:1013D000089581E00895833081F028F4813099F0F8
:1013E0008230A1F008958730A9F08830B9F08430B8
:1013F000D1F4809180008F7D03C0809180008F7731
:1014000080938000089584B58F7702C084B58F7D66
:1014100084BD08958091B0008F7703C08091B000A3
:101420008F7D8093B00008950F931F93CF93DF9328
:101430008C01C0E0D0E0F801EC0FFD1F6491662341
:1014400041F084E795E00E941C02892B11F021965F
:10145000F2CFCE01DF91CF911F910F9108950097A8
:1014600069F0FC0101900020E9F73197AF01481BBA
:10147000590BBC0184E795E00C94850180E090E075
:1014800008952091B00020622093B000009751F0A1
:10149000BC0180E090E0653071058105910510F098
:1014A0000C94020308952091B0002F7D2093B0008A
:1014B000009751F0BC0180E090E065307105810536
:1014C000910510F00C9402030895CF93DF930E94CE
:1014D000140AEC0182E191E00E942F0A8C0F9D1FFB
:1014E000DF91CF9108958F929F92AF92BF920F9309
:1014F0001F93CF93DF93CDB7DEB7A1970FB6F894C4
:10150000DEBF0FBECDBF19A2423008F44AE08E0103
:101510000F5D1F4F842E912CA12CB12CA50194019D
:101520000E949E19E62FB901CA0101501109EA3043
:1015300014F4E05D01C0E95CD801EC93232B242B6B
:10154000252B61F7C8010E942F0AA1960FB6F894C7
:10155000DEBF0FBECDBFDF91CF911F910F91BF9026
:10156000AF909F908F9008958F929F92AF92BF926D
:10157000CF92DF92EF92FF920F931F93CF93DF935F
:10158000FC0120813181E0916F05F09170052E17EB
:101590003F070CF04FC0F901EE0FFF1FA0916D0542
:1015A000B0916E05EA0FFB1FA080B1802170332738
:1015B0006901F1E0CF26232B19F42CE93FEF02C09B
:1015C00024E630E07A018B01EC014901840E951E7E
:1015D000B401C5010E94EF03892B99F48E0C9F1C66
:1015E000B401C5010E94EF03892B71F4B701680DA6
:1015F000791DC5010E94EF03892BF9F023E030E04B
:1016000005C021E030E002C022E030E0F801808136
:1016100091810196821793071CF49183808308C0FF
:10162000F8011182108288819981019699838883BB
:10163000C60105C081E090E002C08FEF9FEFDF910F
:10164000CF911F910F91FF90EF90DF90CF90BF90BF
:10165000AF909F908F900895CF93DF93282F30E025
:10166000F901E056FD4F8491F901E457FD4FD49103
:10167000F901E858FD4FC491CC2391F081110E94EB
:10168000EB09EC2FF0E0EE0FFF1FE259FD4FA591A3
:10169000B491EC91ED2381E090E021F480E002C070
:1016A00080E090E0DF91CF9108951F93CF93DF9377
:1016B000282F30E0F901E056FD4F8491F901E457FD
:1016C000FD4FD491F901E858FD4FC491CC23C1F0EE
:1016D000162F81110E94EB09EC2FF0E0EE0FFF1F97
:1016E000EC59FD4FA591B4919FB7F894111104C026
:1016F0008C91D095D82302C0EC91DE2BDC939FBF58
:10170000DF91CF911F910895CF93DF9390E0FC017B
:10171000E457FD4F2491FC01E858FD4F8491882344
:1017200061F190E0880F991FFC01E65AFD4FC591C9
:10173000D491FC01EC59FD4FA591B491611109C000
:101740009FB7F8948881209582238883EC912E237B
:101750000BC0623061F49FB7F8948881322F3095C6
:1017600083238883EC912E2B2C939FBF06C08FB7C9
:10177000F894E8812E2B28838FBFDF91CF910895B5
:10178000CF93DF93EC011092700061E083E00E9440
:10179000840B60E083E00E94550B9E01DD0F440B3B
:1017A000550B60E47FE180E090E00E945E1C81E0E8
:1017B0008093B00089E08093B1002093B3008BEA5E
:1017C000289F212D112426952093B400DF91CF91DD
:1017D00008958F929F92AF92BF92CF92DF92EF9235
:1017E000FF924B015C017A0186E290E00E94C00BFF
:1017F00088E293E20E94410A84E991E10E94530A3F
:10180000C7010197C12CD12C7601C39404C0CC0C24
:10181000DD1CEE1CFF1C8A95D2F7C114D104E10433
:10182000F104F1F0D701C60188219921AA21BB2139
:10183000892B8A2B8B2B39F080E392E00E94410A9E
:101840008AE996E006C080E392E00E94410A80E3C4
:1018500092E00E94530AF694E794D794C794DDCFA0
:1018600080E392E00E94410A8091B0008F7D8093D6
:10187000B000FF90EF90DF90CF90BF90AF909F901F
:101880008F900895F89482E08093B0008093B10027
:1018900094E69093B3001092B20080937000789415
:1018A000E1E1F6E080831482818160E00C94840B96
:1018B0003FB7F8948091E9069091EA06A091EB0673
:1018C000B091EC0626B5A89B05C02F3F19F00196F4
:1018D000A11DB11D3FBFBA2FA92F982F8827820FB6
:1018E000911DA11DB11DBC01CD0142E0660F771F06
:1018F000881F991F4A95D1F708958F929F92AF92B2
:10190000BF92CF92DF92EF92FF926B017C010E9417
:10191000580C4B015C01C114D104E104F104F1F055
:101920000E94580CDC01CB0188199909AA09BB094E
:10193000883E9340A105B10570F321E0C21AD10899
:10194000E108F10888EE880E83E0981EA11CB11C06
:10195000C114D104E104F10419F7DDCFFF90EF9039
:10196000DF90CF90BF90AF909F908F9008951F927F
:101970000F920FB60F9211242F933F938F939F9343
:10198000AF93BF938091E5069091E606A091E7069C
:10199000B091E8063091E40623E0230F2D3720F4C0
:1019A0000196A11DB11D05C026E8230F0296A11DB9
:1019B000B11D2093E4068093E5069093E606A0937C
:1019C000E706B093E8068091E9069091EA06A091B7
:1019D000EB06B091EC060196A11DB11D8093E906BE
:1019E0009093EA06A093EB06B093EC06BF91AF91FB
:1019F0009F918F913F912F910F900FBE0F901F904D
:101A00001895CF93DF93CDB7DEB72F970FB6F89425
:101A1000DEBF0FBECDBF789484B5826084BD84B52F
:101A2000816084BD85B5826085BD85B5816085BDD9
:101A300080916E00816080936E0010928100809191
:101A40008100826080938100809181008160809319
:101A50008100809180008160809380008091B1003E
:101A600084608093B1008091B00081608093B00069
:101A700080917A00846080937A0080917A008260FD
:101A800080937A0080917A00816080937A008091BF
:101A90007A00806880937A001092C100E0918405FA
:101AA000F091850582E08083E0918005F0918105C9
:101AB0001082E0918205F091830580E1808310928D
:101AC0008C05E0918805F091890586E08083E0919E
:101AD0008605F0918705808180618083E09186058D
:101AE000F0918705808188608083E0918605F09180
:101AF0008705808180688083E0918605F091870565
:101B000080818F7D808361E087E00E94840B62E0AA
:101B100084E00E94840B61E086E00E94840B62E016
:101B200085E00E94840B0E94420C8CEA90E00E94A7
:101B3000650A00E2202E312C84E00E942C0B7C01EF
:101B400085E00E942C0B8C0180914D05813049F479
:101B5000E114F10431F486EC91E00E94650A0E94E0
:101B6000420CE0924D0580914C05813049F40115FD
:101B7000110531F48EEB91E00E94650A0E94420C3F
:101B800000934C0518E1C12E16E0D12ED0926E05BF
:101B9000C0926D058091150690E09093700580933A
:101BA0006F058091E20690E0909372058093710535
:101BB00080911106853009F085C180911A069091B7
:101BC0001B06885891098D35910588F4809115067A
:101BD000843041F480911C0690911D0680974797B0
:101BE00008F4DDC280911506843408F0BFC28091EC
:101BF00015068A3108F435C38091180690911906AC
:101C0000843F914080F410926C0510926B058FEF29
:101C10009FEFDC018093670590936805A0936905A9
:101C2000B0936A0544C080911A0690911B0685976F
:101C30004B9708F016C3EEE1F6E082E090E0812CCD
:101C4000912C5401AC014F5F5F4F2091150630E09D
:101C5000421753075CF4DF0112972D913C912750F6
:101C600031092730310508F4E0C2CA010197959582
:101C7000879590936C0580936B050C972CF41092CC
:101C80006C0510926B05EDC2809267059092680515
:101C9000A0926905B0926A0584E090E015C0809238
:101CA000670590926805A0926905B0926A058BE07D
:101CB00090E00AC0409367055093680560936905FA
:101CC00070936A058CE090E09093640580936305BF
:101CD00061E086E00E94550B809163059091640558
:101CE0000E9458098C01892B19F489E091E008C001
:101CF0008091710590917205892B29F084EF90E015
:101D00000E94650AD0C08091630590916405039795
:101D100009F051C08090670590906805A090690512
:101D2000B0906A05EFEF8E169E06AE06BE0619F459
:101D30008BEC90E0E5CF8B2D0E944209582E8A2D26
:101D40000E944209682E892D0E944209782E882D12
:101D50000E944209EE24EA94F12C970127193109D7
:101D600090E02817390739F585EC90E00E94140AB5
:101D7000652D70E080E090E04AE00E94730A83ECF9
:101D800090E00E94140AE518F108862D90E0E8160C
:101D9000F90659F0662D70E080E090E04AE00E947C
:101DA000730A81EC90E00E94140A672D70E080E0D5
:101DB00090E04AE072C08FEE90E00E94140AC801E1
:101DC0000E942F0A8DEE90E00E94140A8091670510
:101DD00090916805A0916905B0916A058F3F9F4F6A
:101DE000AF4FBF4F19F486EE90E08ACF8091630524
:101DF00090916405059789F480EE90E00E94140AA2
:101E0000609165057091660580E090E040E10E9478
:101E1000730A8EED90E00E94140A20916B053091B8
:101E20006C058091630590916405069719F480E133
:101E300090E002C080E290E02817390729F189ED8F
:101E400090E00E94140A80906B0590906C05092C1C
:101E5000000CAA08BB08B7FE0EC06DE284E795E04F
:101E60000E941C0266277727CB01681979098A0925
:101E70009B094AE003C04AE0C501B4010E94730A0D
:101E800087ED90E00E94140A6091670570916805E3
:101E90008091690590916A0540E10E94730A82E190
:101EA00091E00E942F0A68EC70E080E090E00E94D0
:101EB0007D0C82E0809311061092150660E086E0AA
:101EC0000E94550B84E795E00E94E401181619065C
:101ED0000CF049C184E795E00E94C20120914A05B7
:101EE00030914B058D3019F08A3009F023C1C901BA
:101EF00001978E3F934008F018C1F901E65BFE4F51
:101F000010828AE491E098878F8380E190E00E94BC
:101F10005809BC01CE0107960E940B09982EEF804C
:101F2000F884882309F40AC761E087E00E94550B12
:101F3000FE82ED82ED81FE818081882379F1CE01E0
:101F400005960E94CB090D811E81D8018C910E94BB
:101F5000DA09882309F4D0C0F80181810E94DA09E6
:101F6000882309F4C9C0D80112968C910E94DA091D
:101F7000882309F4C1C0F80183810E94DA0988230B
:101F800009F4BAC0D80114968C91893011F40C94DC
:101F900025188F7D09F0B0C00C942518FE82ED82C3
:101FA000CE0105960E94CB090D811E81C8010E94B9
:101FB0009E09892B09F0A0C00C5F1F4F1E830D8363
:101FC000CE0105960E94CB090D811E81C8010E9499
:101FD0009E09BC0180E090E00E942B1B21E339E0C8
:101FE00047E75EE30E94DD1B9B01AC0160E074E209
:101FF00084E799E40E94831A0E94F51A7B0180E02D
:1020000090E00E942B1B9B01AC0160E070E080E837
:102010009FE30E94831A20E034E244E759E40E94DF
:10202000DD1B20E030E040E05FE30E94121A0E94D6
:10203000F51A5B01C70168EE73E00E944A1C7B0140
:102040000C5F1F4F1E830D83CE0105960E94CB09A6
:102050006D807E80C3010E949E098C01B4E06B0EEE
:10206000711C7E826D82CE0105960E94CB096D8027
:102070007E80C3010E949E09E4E06E0E711C7E8288
:102080006D82011101C08C011127000F111FC701C2
:102090000E94C00BE12CF12CBB24E016F10651F19B
:1020A000CE0105960E94CB098D819E81E0FE0DC078
:1020B0000E949E096C01AC9CC001AD9C900DBC9C23
:1020C000900D11240E94530A0CC00E949E099C018D
:1020D000A29EC001A39E900DB29E900D11240E945D
:1020E000410A8D819E8104969E838D833FEFE31A82
:1020F000F30AD3CF911004C086E891E00E94650AEC
:1021000060E087E00E94550B8DC760E471E0CE016E
:1021100007960E940B09182F8111F2CF83E991E0F5
:102120000E94650A0E94420C1B8710924B05109278
:102130004A0519C02F3F43E0340728F4F901E65B54
:10214000FE4F808307C02F3F334021F481EA91E0A6
:102150000E94650A80914A0590914B0501969093E3
:102160004B0580934A050E948B02E6CC80911C06A9
:1021700090911D06825491098E9708F038CD80E029
:1021800090E040E050E0BA01FC01E25EF94F2081AE
:1021900031812950310929303105D0F028CD809185
:1021A0001E0690911F060997099708F01BCD109203
:1021B0006C0510926B05CC24CA94DC2C7601C0927D
:1021C0006705D0926805E0926905F0926A052CC710
:1021D000FC01E05EF94F2081318127513109223124
:1021E0003105E8F020813181265031092730310551
:1021F00008F0FDCC440F551F661F771F04968038EA
:10220000910511F630926C0520926B05409367059D
:10221000509368056093690570936A0505C7440F7C
:10222000551F661F771F4160E9CF208131812351FF
:1022300031092F30310548F4880C991CAA1CBB1CAD
:10224000689480F802963496FDCC208131812A5022
:1022500031092930310528F4880C991CAA1CBB1CB3
:10226000F1CF809115068A3108F45DC0809118067F
:10227000909119068032934008F4C5CC80911A06DB
:1022800090911B06C697869708F04DC080911C065A
:1022900090911D06C697869708F045C0E0E2F6E0EB
:1022A00083E090E0812C912C5401AC014F5F5F4F93
:1022B0002091150630E04217530754F4DF011297BE
:1022C0002D913C912C5031092B30310580F0CA0101
:1022D00001979595879590936C0580936B050C9766
:1022E0000CF0DDCC10926C0510926B051CC02081A7
:1022F0003181255231092B31310548F4880C991C64
:10230000AA1CBB1C689480F802963496CECF20811C
:1023100031812C5031092A30310528F4880C991C60
:10232000AA1CBB1CF1CF80911506823208F44DC067
:1023300080911A0690911B060697079708F045C0F2
:10234000EEE1F6E082E090E040E050E0BA018C017E
:102350000F5F1F4F2091150630E002171307C4F4DA
:10236000DF0112972D913C9111972E5131092731A0
:102370003105E8F4440F551F661F771F4160208127
:10238000318134962350310925303105E0F0C80100
:1023900001979595879590936C0580936B05409771
:1023A0000CF088CC10926C0510926B050EC02D912C
:1023B0003C912C5031092B30310538F4440F551F16
:1023C000661F771FDCCF0296C2CF1A86198681E07E
:1023D00090E09E838D83809115068D3078F41A8667
:1023E000198681E090E09E838D8380916F059091A6
:1023F0007005181619060CF46CC0C3C049E753E009
:10240000BE01675F7F4FCE0105960E94B40A892BFB
:1024100031F749E753E0BE01675F7F4FCE01059674
:102420000E94B40A0197D9F649E753E0BE01675FFD
:102430007F4FCE0105960E94B40A892B81F6812C2C
:10244000912C540100E010E08091150690E02D8160
:102450003E812817390774F549E753E0BE01675FED
:102460007F4FCE0105960E94B40A7C0149E753E0F4
:10247000BE01675F7F4FCE0105960E94B40AB1E0AE
:10248000EB16F10451F4892B09F0A9CF880C991CA3
:10249000AA1CBB1C689480F80AC0EF2809F09FCFE3
:1024A000019709F09CCF880C991CAA1CBB1C0F5FDC
:1024B0001F4FCACF10936C0500936B058092670580
:1024C00090926805A0926905B0926A0581E090E05B
:1024D000FBCBE0916D05F0916E0582E090E09E836C
:1024E0008D838281938189974E9708F04AC0A3E03B
:1024F000B0E0BE83AD83848195810B970A9708F085
:1025000040C04CEB51E0BE01675F7F4FCE010596A6
:102510000E94B40A892BA9F54CEB51E0BE01675F1C
:102520007F4FCE0105960E94B40A019751F5412CC8
:10253000512C320100E010E020916F0530917005C0
:102540008D819E81821793070CF026C14CEB51E0E0
:10255000BE01675F7F4FCE0105960E94B40A5C0101
:102560000330110509F0E2C04CEB51E0BE01675F9A
:102570007F4FCE0105960E94B40AA816B90609F449
:10258000D5C0E0916D05F0916E0582819381C6976B
:102590008697E0F4848195814B974597B8F4DF01E5
:1025A00016967F0126ECE20EF11C20E030E040E0C0
:1025B00050E060E070E080E090E00D911C91119798
:1025C000095011090830110508F4F5C0809115066D
:1025D000893370F1828193818957910983359105FF
:1025E00008F425C125C0D90112966D917C911397ED
:1025F000665171096131710508F028C1D501C40126
:10260000880F991FAA1FBB1F4C015D01689480F8B9
:102610004E5F5F4F2C5F3F4F4B33510509F425C18F
:10262000D9016D917C916A50710969307105D8F2B8
:1026300080911506823231F4828193810A9709973D
:1026400008F430C1828193818957910983359105BE
:10265000D0F4809115068132B0F084819581CA97BB
:10266000899788F49F012A5F3F4F812C912C540158
:1026700043E050E0D9016D917C916A507109693055
:10268000710508F42EC1828193818C549109C597FC
:1026900078F480911506843031F484819581809797
:1026A000479708F47EC180911506843408F060C114
:1026B00080911506863460F1828193810C970B9787
:1026C00008F4BCC125C0D90112966D917C91139775
:1026D0006E5171096731710508F0E6C1D501C40179
:1026E000880F991FAA1FBB1F4C015D01689480F8D9
:1026F0004E5F5F4F2C5F3F4F4534510509F4B9C120
:10270000D9016D917C916C5071096B307105D8F2D3
:1027100080911506883508F42FC2828193818558EF
:1027200091098B35910508F4CFC126C24CEB51E0DD
:10273000BE01675F7F4FCE0105960E94B40A7C01FF
:102740000330110569F44CEB51E0BE01675F7F4F28
:10275000CE0105960E94B40AE816F90609F011CFD9
:10276000A114B10459F4EA94EF2809F00ACF440CFB
:10277000551C661C771C689440F80BC0AA94AB28C3
:1027800009F0FFCEEF2809F0FCCE440C551C661C66
:10279000771C0F5F1F4FD0CE10936C0500936B0515
:1027A00040926705509268056092690570926A05CB
:1027B00082E090E089CA12960D911C911397015105
:1027C00011090D30110570F112960D911C9113979E
:1027D000045011090530110508F0F8CE01E00E94FF
:1027E0008A1C1496AE15BF0509F0E7CE2093670545
:1027F000309368054093690550936A0500E20E9492
:10280000A51C209365053093660585E090E09093C4
:1028100064058093630580E390E090936C0580935A
:102820006B0556CA01E00E948A1C2160DACF8481C0
:102830009581CA97899708F0FBCE9F012A5F3F4F89
:10284000812C912C540143E050E0EACE12966D9118
:102850007C911397665071096730710508F0E8CED6
:10286000880C991CAA1CBB1CD3CE9F012A583F4F31
:10287000D9012D913C912A5031092930310508F0B8
:10288000D7CE2CE130E030936C0520936B0580921D
:10289000670590926805A0926905B0926A058AE082
:1028A00090E012CA20911506CF01820F911D820F70
:1028B000911DDC0112978D919C910A97099708F060
:1028C000C1CE10926C0510926B058FEF9FEFDC016B
:1028D0008093670590936805A0936905B0936A0596
:1028E000ACC3D90112966D917C9113976651710911
:1028F0006131710568F5D501C401880F991FAA1FC0
:10290000BB1F4C015D01689480F84E5F5F4F2C5FE8
:102910003F4F4332510509F0ADCE9F012A5B3F4F37
:10292000D9012D913C912A5031092930310508F007
:10293000AACEE0E1F0E0F0936C05E0936B058092A5
:10294000670590926805A0926905B0926A0575C303
:10295000D90112966D917C91139766507109673079
:10296000710508F090CE880C991CAA1CBB1CCDCF19
:102970008481958189549109C39708F099CE9F016C
:102980002A5F3F4FBF016A577F4F812C912C540122
:10299000D9014D915C914950510949305105C0F020
:1029A00087CE868197810997099708F07CCE10928F
:1029B0006C0510926B05CC24CA94DC2C7601C09275
:1029C0006705D0926805E0926905F0926A0539C3FF
:1029D000D90112964D915C9113974651510941319D
:1029E0005105E0F4D501C401880F991FAA1FBB1F30
:1029F0004C015D01689480F82C5F3F4F62177307AC
:102A000039F630926C0520926B05809267059092A2
:102A10006805A0926905B0926A0513C3D9011296A0
:102A20004D915C911397465051094730510508F07C
:102A30003FCE880C991CAA1CBB1CDECF84819581DB
:102A40000997099708F064CE868197818C974F97F4
:102A500008F05ECE8085918589974D9708F058CE15
:102A60009F01265F3F4F812C912C540145E050E09F
:102A700047CE9F0126573F4FD9012D913C912C50B5
:102A800031092B30310508F043CE30926C0520928D
:102A90006B058092670590926805A0926905B092D7
:102AA0006A0588E090E010C9D90112966D917C9179
:102AB0001397695071096930710508F029CE880CA7
:102AC000991CAA1CBB1C14CE848195818254910947
:102AD0008E9708F051C08F01045C1F4F8DE190E08C
:102AE00020E030E04091150650E044505109841731
:102AF0009507ACF4A80142505109DA014D915C915F
:102B0000495051094830510510F136C0D8014D9156
:102B10005C91485151094231510558F1CB0101975F
:102B20009595879590936C0580936B058A9724F112
:102B3000C901330FAA0BBB0B8093670590936805FF
:102B4000A0936905B0936A0589E090E0BDC8BC0117
:102B50006F5F7F4FD8014D915C91475051094730CD
:102B60005105A0F6220F331F216002960C5F1F4F04
:102B7000B9CF220F331FF9CF809115068032E1F4CF
:102B80008281938106970697B8F48481958109978D
:102B9000099790F49F012A5F3F4FBF01625C7F4F0E
:102BA000812C912C5401D9014D915C9146505109D1
:102BB0004630510508F480C0C0906F05D090700574
:102BC000B6E0CB16D1040CF4B3C08F010E5F1F4FDB
:102BD000B5EC8B2EBDE99B2EBCE1AB2EB1E8BB2E34
:102BE00083E0E82EF12CF801648175812081318128
:102BF0003D872C8780E090E00E942B1B2B013C013D
:102C0000AC85BD85BD0180E090E00E942B1B6C87E8
:102C10007D878E879F872DEC3CEC4CE45FE30E9420
:102C2000DD1B9B01AC01C301B2010E947E1A87FD2E
:102C300019C02DEC3CEC4CE45FE3C301B2010E94EF
:102C4000DD1B9B01AC016C857D858E859F850E9477
:102C50007E1AE82F880FFF0BEE27FF0FEE1FFF27CE
:102C6000319602C0E0E0F0E0A501940163E971E073
:102C700080E091E00E948E194F01FF0FAA08BB0867
:102C800086269726A826B926BFEFEB1AFB0A0E5F09
:102C90001F4FEC14FD0409F0A6CF809267059092B7
:102CA0006805A0926905B0926A0530926C05209281
:102CB0006B058FEF9FEF08C8D90112964D915C917B
:102CC0001397495151094331510510F5D501C401FC
:102CD000880F991FAA1FBB1F4C015D01689480F8E3
:102CE0002C5F3F4F2617370709F05DCF2EE030E00D
:102CF00030936C0520936B05809267059092680570
:102D0000A0926905B0926A058FE090E00C94640E81
:102D1000D90112964D915C91139749505109493050
:102D2000510508F049CF880C991CAA1CBB1CD8CFB0
:102D300082E08093110610921506C4C8F7018081C5
:102D4000823529F4D70111968C91813449F0EF81B5
:102D5000F885FA83E98380818E3409F03DC179C01A
:102D6000F7018281873599F7F3E0EF0EF11CF886C1
:102D7000EF82CE0107960E94BF08A12CB12CC5019D
:102D80000E945809BC01CE0107960E940B098823B6
:102D900009F456C08F8198859C838B8365E171E02F
:102DA000CE0103960E940B09882361F060E170E078
:102DB000CE0103960E94CD087B01672B29F48FE694
:102DC00091E030C0E12CF12C6BE171E0CE01039673
:102DD0000E940B09882361F06AE070E0CE0103963F
:102DE0000E94CD084B01672B31F48CE591E01AC0AD
:102DF00060E2862E912C60E271E0CE0103960E9483
:102E00000B09811112C060E170E0CE0103960E94AF
:102E1000CD08AB01BC01411551056105710551F4A7
:102E200087E491E00E94650AFDC001E040E050E0C7
:102E3000BA0101C000E09401C5010E943304F2C050
:102E40002FEFA21AB20A32E1A316B10409F097CF0C
:102E50007ECF8181853409F0BFC08281833409F03F
:102E6000BBC083818153823008F0B6C03496FA83A8
:102E7000E983CE0101960E94BF08E981FA81808131
:102E8000823591F48181853479F4E12CF12C01E0D3
:102E900020E230E04FEF5FEFBA0183E090E00E9464
:102EA000330441E04B87BEC06AE070E0CE0101967A
:102EB0000E94CD086B017C01CE0101960E94BF08E3
:102EC000E981FA8180818C3239F084E391E00E94BB
:102ED000650A81E08B87A6C03196FA83E983412C8D
:102EE000512C32014A944C185D086E087F086AE044
:102EF00070E0CE0101960E94CD084B015C01CE012D
:102F000001960E94BF08E981FA8180818C3269F4C0
:102F10003196FA83E9836AE070E0CE0101960E945F
:102F2000CD08240135014B015C019FEFC916D10486
:102F3000E104F10409F070F4AFEF4A1651046104A2
:102F4000710409F038F4BFEF8B169104A104B104A9
:102F500049F040F08CE191E00E94650ACB84CC20DE
:102F6000D9F160C08C2D0E944209182F842D0E9437
:102F70004209082F882D0E94420990E0A0E0B0E0AD
:102F8000402F50E060E070E0BA01552744276A0105
:102F90007B01F12A970186014427582F692F7A2F48
:102FA000042B152B262B372B4FEF50E060E070E001
:102FB000481B590B6A0B7B0B402B512B622B732B3D
:102FC000E12CF12C00E020E230E083E090E00E9470
:102FD000330421E02B8726C067E271E0CE0107961B
:102FE0000E940B098B87882319F061E086E017C0E7
:102FF0006FE271E0CE0107960E940B09882319F059
:1030000060E086E07FC868E371E0CE0107960E9429
:103010000B098B87882309F478C861E087E00E9458
:10302000550B1B861B857EC893E0E92EF12CF09290
:103030006405E09263050C94680E86E090E00C94C1
:10304000640E87E090E00C94640E0C5F1F4F1E83AB
:103050000D830C949A0FE4E7F5E01382128288EE58
:1030600093E0A0E0B0E084839583A683B78384E0F7
:1030700091E09183808385EC90E09587848784EC50
:1030800090E09787868780EC90E0918B808B81EC35
:1030900090E0938B828B82EC90E0958B848B86EC16
:1030A00090E0978B868B118E128E138E148EE1E139
:1030B000F6E082E0818313820895A0E0B0E0E3E6C9
:1030C000F8E10C94CC195C016B017A016115710572
:1030D00019F0FB0191838083E114F10429F0C70109
:1030E0000297839708F0E5C0E5012196F50110816C
:1030F000812F90E00E947319892B11F05E01F4CFAB
:103100001D3229F42196F501118101E007C01B321F
:1031100021F4E5012296F501118100E0E114F104AA
:1031200009F1F0E1EF16F10429F43FC010E3E114D6
:10313000F10421F128E0E216F10401F154F4E2E097
:10314000EE16F10421F5812C912CA12CB0E4BB2EBC
:103150003EC0FAE0EF16F10439F020E1E216F10486
:10316000B1F430C0103319F1FAE0EF2EF12CACECD1
:103170008A2E982CA82CACE0BA2E29C078E0E72E35
:10318000F12C812C912CA12CE0E1BE2E20C060E01E
:1031900070E080E090E897010F2C000C440B550B79
:1031A0000E949E1949015A0112C0103359F48881B6
:1031B0008F7D883509F0BACF19812296026080E1AF
:1031C000E82EF12C812C912CA12C68E0B62E40E049
:1031D00060E070E0CB0127010F2C000C6608770837
:1031E000FE0150ED352E310E29E0231570F42FEB42
:1031F000210F2A3118F439EC332E06C02FE9210FA4
:103200002A3118F529EA322E310E232D30E02E1501
:103210003F05DCF447FD16C086169706A806B906DA
:1032200070F0A30192010E948E19630D711D811D22
:10323000911D61307105810520E8920710F04FEF74
:1032400001C041E021961081CBCF202F2170C11405
:10325000D10471F0442329F02197F601D183C08372
:1032600007C001FF19C02297F601D183C08314C0A3
:1032700047FF12C0222329F060E070E080E090E870
:1032800004C06FEF7FEF8FEF9FE722E230E03093D3
:10329000EE062093ED0609C0222381F090958095DB
:1032A000709561957F4F8F4F9F4F462F372F282F57
:1032B00012C040E030E020E090E00DC097FFF5CF75
:1032C00082E290E09093EE068093ED066FEF7FEF41
:1032D0008FEF9FE7EACF642F732F822FCDB7DEB732
:1032E000E1E10C94E81991110C948B19803219F0DA
:1032F00089508550C8F70895FB01DC0141505040CA
:1033000048F005900D920020C9F701C01D92415070
:103310005040E0F70895992788270895DB018F939F
:103320009F930E94C019BF91AF91A29F800D911DE4
:10333000A39F900DB29F900D11240895A1E21A2E23
:10334000AA1BBB1BFD010DC0AA1FBB1FEE1FFF1F49
:10335000A217B307E407F50720F0A21BB30BE40B99
:10336000F50B661F771F881F991F1A9469F76095E0
:103370007095809590959B01AC01BD01CF0108959A
:103380000E94021AA59F900DB49F900DA49F800DDE
:10339000911D112408952F923F924F925F926F9248
:1033A0007F928F929F92AF92BF92CF92DF92EF92D5
:1033B000FF920F931F93CF93DF93CDB7DEB7CA1B56
:1033C000DB0B0FB6F894DEBF0FBECDBF09942A8881
:1033D000398848885F846E847D848C849B84AA8429
:1033E000B984C884DF80EE80FD800C811B81AA81B6
:1033F000B981CE0FD11D0FB6F894DEBF0FBECDBF81
:10340000ED010895A29FB001B39FC001A39F700D6D
:10341000811D1124911DB29F700D811D1124911DDC
:1034200008955058BB27AA270E94291A0C94A31B61
:103430000E94951B38F00E949C1B20F039F49F3F9E
:1034400019F426F40C94921B0EF4E095E7FB0C940F
:103450008C1BE92F0E94B41B58F3BA17620773073D
:103460008407950720F079F4A6F50C94D61B0EF48A
:10347000E0950B2EBA2FA02D0B01B90190010C0184
:10348000CA01A0011124FF27591B99F0593F50F49C
:10349000503E68F11A16F040A22F232F342F4427F4
:1034A000585FF3CF469537952795A795F0405395EC
:1034B000C9F77EF41F16BA0B620B730B840BBAF0BC
:1034C0009150A1F0FF0FBB1F661F771F881FC2F727
:1034D0000EC0BA0F621F731F841F48F4879577953B
:1034E0006795B795F7959E3F08F0B0CF9395880FF5
:1034F00008F09927EE0F9795879508950E94681B0D
:1035000008F481E008950E94971A0C94A31B0E946E
:103510009C1B58F00E94951B40F029F45F3F29F056
:103520000C948C1B51110C94D71B0C94921B0E9471
:10353000B41B68F39923B1F3552391F3951B550BF5
:10354000BB27AA2762177307840738F09F5F5F4F76
:10355000220F331F441FAA1FA9F335D00E2E3AF0B5
:10356000E0E832D091505040E695001CCAF72BD0CD
:10357000FE2F29D0660F771F881FBB1F261737071E
:103580004807AB07B0E809F0BB0B802DBF01FF2750
:1035900093585F4F3AF09E3F510578F00C948C1B86
:1035A0000C94D71B5F3FE4F3983ED4F38695779550
:1035B0006795B795F7959F5FC9F7880F911D969509
:1035C000879597F90895E1E0660F771F881FBB1F65
:1035D000621773078407BA0720F0621B730B840B12
:1035E000BA0BEE1F88F7E09508950E94FC1A6894C4
:1035F000B1110C94D71B08950E94BC1B88F09F57F3
:1036000098F0B92F9927B751B0F0E1F0660F771F06
:10361000881F991F1AF0BA95C9F714C0B13091F0FC
:103620000E94D61BB1E008950C94D61B672F782F0B
:103630008827B85F39F0B93FCCF3869577956795C1
:10364000B395D9F73EF490958095709561957F4F2D
:103650008F4F9F4F0895E89409C097FB3EF49095D3
:103660008095709561957F4F8F4F9F4F9923A9F05B
:10367000F92F96E9BB279395F695879577956795EA
:10368000B795F111F8CFFAF4BB0F11F460FF1BC02E
:103690006F5F7F4F8F4F9F4F16C0882311F096E9C1
:1036A00011C0772321F09EE8872F762F05C066236F
:1036B00071F096E8862F70E060E02AF09A95660F28
:1036C000771F881FDAF7880F9695879597F90895E1
:1036D000990F0008550FAA0BE0E8FEEF1616170623
:1036E000E807F907C0F012161306E407F50798F08B
:1036F000621B730B840B950B39F40A2661F0232BA4
:10370000242B252B21F408950A2609F4A140A6951F
:103710008FEF811D811D089597F99F6780E870E004
:1037200060E008959FEF80EC089500240A94161637
:10373000170618060906089500240A94121613069F
:10374000140605060895092E0394000C11F488232D
:1037500052F0BB0F40F4BF2B11F460FF04C06F5F49
:103760007F4F8F4F9F4F089557FD9058440F551F1F
:1037700059F05F3F71F04795880F97FB991F61F0F3
:103780009F3F79F087950895121613061406551F6A
:10379000F2CF4695F1DF08C0161617061806991FD6
:1037A000F1CF86957105610508940895E894BB27CB
:1037B00066277727CB0197F908950E94F01B0C9498
:1037C000A31B0E94951B38F00E949C1B20F09523A0
:1037D00011F00C948C1B0C94921B11240C94D71B8D
:1037E0000E94B41B70F3959FC1F3950F50E0551FD5
:1037F000629FF001729FBB27F00DB11D639FAA2746
:10380000F00DB11DAA1F649F6627B00DA11D661F94
:10381000829F2227B00DA11D621F739FB00DA11DB5
:10382000621F839FA00D611D221F749F3327A00D6F
:10383000611D231F849F600D211D822F762F6A2F0B
:1038400011249F5750409AF0F1F088234AF0EE0F70
:10385000FF1FBB1F661F771F881F91505040A9F79D
:103860009E3F510580F00C948C1B0C94D71B5F3F3E
:10387000E4F3983ED4F3869577956795B795F795D9
:10388000E7959F5FC1F7FE2B880F911D9695879551
:1038900097F90895AA1BBB1B51E107C0AA1FBB1FC4
:1038A000A617B70710F0A61BB70B881F991F5A95CC
:1038B000A9F780959095BC01CD010895052E97FB41
:1038C0001EF400940E94751C57FD07D00E949E199B
:1038D00007FC03D04EF40C94751C50954095309520
:1038E00021953F4F4F4F5F4F08959095809570956C
:1038F00061957F4F8F4F9F4F0895EE0FFF1F0590EB
:10390000F491E02D09940E94021AB7FF0895821BDA
:10391000930B08950F93083090F0982F872F762FF0
:10392000652F542F432F322F22270850F4CF220F18
:10393000331F441F551F661F771F881F991F0A9545
:10394000B2F70F91089597FB10F8169400080F93A3
:10395000083098F00850232F342F452F562F672F0B
:10396000782F892F902DF4CF05949795879577958B
:10397000679557954795379527950A95AAF70F911B
:10398000089581E090E0F8940C94D41CFB01DC01D4
:103990004150504030F08D910190801919F4002071
:0C39A000B9F7881B990B0895F894FFCF2D
:1039AC00000000001C028501B3016902E401C201A0
:1039BC00D6010D0A00414444523A004C454E3A009F
:1039CC00524550454154004C454431204F4E004C1B
:1039DC00454431204F4646004C454432204F4E0062
:0A39EC004C454432204F46460000CF
:00000001FF
