:100000000C9455010C947D010C947D010C947D01A0
:100010000C947D010C947D010C947D010C941C03C7
:100020000C947D010C947D010C947D010C947D0158
:100030000C947D010C941A040C947D010C947D01A8
:100040000C94EA0C0C947D010C94B7020C94910270
:100050000C947D010C947D010C947D010C947D0128
:100060000C947D010C947D01D704D704A205AE0544
:10007000E6053C067A06B80604075207210921095D
:100080008E07CE07190821095E08E509E809EB0982
:10009000EE09F109F409F709FA09FD09000A030A52
:1000A000060A090A0C0A0F0A120A150A424F4D45A0
:1000B0002053455249414C20495220524541445910
:1000C000002C002C004E45433120004E454331208A
:1000D0005245504541540020004C454E3A00200006
:1000E000414444523A005245504541540020005288
:1000F000415720004552524F523A20524543562014
:100100004F564552464C4F57004552524F523A2097
:100110005245435620504152534552004552524F8A
:10012000523A204E4543312056414C5545205241CC
:100130004E4745004552524F523A2053594E544172
:1001400058204E454331004552524F523A20494EB5
:1001500056414C49442056414C5545004552524F5A
:10016000523A20494E56414C4944204C454E004598
:1001700052524F523A20494E56414C494420414434
:100180004452455353004552524F523A2053594E10
:10019000544158004552524F523A20494E505554FE
:1001A00020425546464552204F564552464C4F57E1
:1001B00000425554544F4E3200425554544F4E3124
:1001C000004C45474F0050524F4E544F0044454E4F
:1001D0004F4E0053484152500044495348004D4946
:1001E00054535542495348490053414E594F004CCE
:1001F000470041495741005748594E544552005312
:10020000414D53554E47004A56430050414E4153CD
:100210004F4E494300534F4E59004E454300524301
:100220003600524335004552524F523A206E756D9A
:100230006265723A20004552524F523A204E4F5456
:1002400020494D504C454D454E544544000000005A
:1002500000240027002A0000000000250028002BB1
:100260000000000000230026002900040404040408
:100270000404040202020202020303030303030153
:10028000020408102040800102040810200102042A
:10029000081020000000080002010000030407000D
:1002A0000000000000000000E01711241FBECFEF87
:1002B000D8E0DEBFCDBF26E0AAE4B1E001C01D92C8
:1002C000A93FB207E1F711E0A0E0B1E0E4E0F9E313
:1002D00002C005900D92AA34B107D9F711E0C5E527
:1002E000D1E004C02197FE010E941E1CC435D10735
:1002F000C9F70E94340D0C94801C0C940000CF921E
:10030000DF92EF92FF920F931F93CF93DF936C01D5
:100310007A018B01C0E0D0E0CE15DF0581F0D80175
:100320006D918D01D601ED91FC910190F081E02D50
:10033000C6010995892B11F02196EECF7E01C701E8
:10034000DF91CF911F910F91FF90EF90DF90CF90B1
:100350000895089580E090E00895FC01538D448D48
:10036000252F30E0842F90E0821B930B541710F060
:10037000CF96089501970895FC01918D828D98176D
:1003800061F0828DDF01A80FB11D5D968C91928D79
:100390009F5F9F73928F90E008958FEF9FEF089576
:1003A000FC01918D828D981731F0828DE80FF11D3F
:1003B000858D90E008958FEF9FEF0895FC01918D5A
:1003C000228D892F90E0805C9F4F821B91098F7353
:1003D000992708958EE795E00E94DE0121E0892BA0
:1003E00009F420E0822F0895FC01848DDF01A80F1D
:1003F000B11DA35ABF4F2C91848D90E001968F734D
:100400009927848FA689B7892C93A089B1898C916B
:10041000837080648C93938D848D981306C00288BA
:10042000F389E02D80818F7D80830895EF92FF9284
:100430000F931F93CF93DF93EC0181E0888F9B8D07
:100440008C8D981305C0E889F989808185FD26C0C7
:10045000F62E0B8D10E00F5F1F4F0F731127E02E4C
:100460008C8DE8120CC00FB607FCFACFE889F98929
:10047000808185FFF5CFCE010E94F401F1CF8B8DF5
:10048000FE01E80FF11DE35AFF4FF0829FB7F89489
:100490000B8FEA89FB89808180620AC09FB7F8943C
:1004A000EE89FF896083E889F9898081837080649F
:1004B00080839FBF81E090E0DF91CF911F910F91EA
:1004C000FF90EF900895CF93DF93EC01888D882300
:1004D000C9F0EA89FB89808185FD05C0A889B989B1
:1004E0008C9186FD0FC00FB607FCF5CF808185FF8C
:1004F000F2CFA889B9898C9185FFEDCFCE010E94FA
:10050000F401E7CFDF91CF91089580E090E0892B4F
:1005100029F00E94EA0181110C94000008950E94C4
:10052000621C1F920F920FB60F9211242F933F93CC
:100530004F935F936F937F938F939F93AF93BF93EB
:10054000EF93FF938EE795E00E94F401FF91EF9106
:10055000BF91AF919F918F917F916F915F914F91DB
:100560003F912F910F900FBE0F901F9018951F92E3
:100570000F920FB60F9211242F938F939F93EF93A7
:10058000FF93E0918E05F0918F058081E0919405B5
:10059000F091950582FD12C09081809197058F5F43
:1005A0008F7320919805821751F0E0919705F0E044
:1005B000E258FA4F958F8093970501C08081FF9193
:1005C000EF919F918F912F910F900FBE0F901F90E1
:1005D00018958F929F92AF92BF92CF92DF92EF9237
:1005E000FF926B017C010E948B0C4B015C0184E04B
:1005F000C81AD108E108F108C80CD91CEA1CFB1C78
:10060000C814D904EA04FB0438F40E948B0C861643
:100610009706A806B906C8F30E948B0C6C157D05D9
:100620008E059F05C8F3FF90EF90DF90CF90BF90AD
:10063000AF909F908F9008951F920F920FB60F92D8
:1006400011242F933F934F935F936F937F938F93D7
:100650009F93AF93BF93EF93FF9380911C060E94EB
:100660005F0B20912006309121062F5F3F4F309382
:1006700021062093200690911F06953618F096E0EB
:1006800090931B0690911B069430C9F128F4923088
:1006900069F09330D1F05EC0953009F451C09630C6
:1006A00009F058C091E09093EC0651C0811152C0FE
:1006B00020912006309121062436310508F442C0ED
:1006C0001092EC0610921F061CC0813009F042C047
:1006D000E0911F0691E09E0F90931F06F0E020919D
:1006E000200630912106EE0FFF1FE55EF94F30879F
:1006F0002783109221061092200694E029C08111D0
:1007000017C0E0911F0691E09E0F90931F06F0E046
:100710002091200630912106EE0FFF1FE55EF94F74
:1007200030872783109221061092200693E010C094
:1007300020912006309121062536310558F007C05A
:10074000811108C0109221061092200603C095E086
:1007500090931B0690911E069923B9F081110AC04F
:1007600080911D06882321F080911D0661E009C05B
:100770002D9A0BC080911D06882331F080911D06B3
:1007800060E00E94880B01C02D98FF91EF91BF910E
:10079000AF919F918F917F916F915F914F913F9119
:1007A0002F910F900FBE0F901F901895CF92DF9250
:1007B000EF92FF92CF93DF93EC01072E000C880B92
:1007C000990B0E94E21A6B017C0120E030E040E4CA
:1007D0005FE30E94921B20E030E048E452E40E9474
:1007E000381A0E94AA1AC617D707D4F020E030E0C2
:1007F00040EA5FE3C701B6010E94921B20E030E0AF
:1008000048E452E40E94381A20E030E040E85FE318
:100810000E94C7190E94AA1A21E06C177D070CF4E8
:1008200020E0822F90E0DF91CF91FF90EF90DF905A
:10083000CF9008951F920F920FB60F9211242F930D
:100840003F934F935F938F939F93AF93BF93EF9398
:10085000FF938091690590916A05A0916B05B09115
:100860006C050196A11DB11D8093690590936A05E1
:10087000A0936B05B0936C0580914B0190914C0156
:10088000019690934C0180934B0120914D01409132
:100890004E0130914F01E42FF32FE20FF11DE20FD3
:1008A000F11D208131818217930709F04DC080919D
:1008B0004A01882341F0809180008F7380938000EB
:1008C00010924A0108C080918000806C8093800063
:1008D00081E080934A0110924C0110924B014091AB
:1008E0004D014F5F40934D01E0914E01F0914F015A
:1008F00024813581220F331F86819781880F991FAC
:10090000820F931F049650E048175907E8F02C5FB8
:100910003F4F20934D018091690590916A05A09108
:100920006B05B0916C0581389843A140B10560F02A
:10093000809180008F738093800010924A01809193
:1009400081008E7F80938100FF91EF91BF91AF91E5
:100950009F918F915F914F913F912F910F900FBE7B
:100960000F901F9018952F923F924F925F926F9227
:100970007F928F929F92AF92BF92CF92DF92EF922F
:10098000FF920F931F93CF93DF936C014A015B019A
:10099000E90161E087E00E94880BF6013197E131BF
:1009A000F10508F04EC4EC5CFF4F0C941E1C0111C5
:1009B0000CC0209167053091680581E090E0821BB2
:1009C000930B9093680580936705219781E090E0F1
:1009D0000C2E02C0880F991F0A94E2F7809590951B
:1009E000092E000CAA0BBB0B88229922AA22BB223B
:1009F00080916705909168050C2E02C0880F991FA1
:100A00000A94E2F7092E000CAA0BBB0B882A992A3C
:100A1000AA2ABB2A84E290E0CA94CD2809F03FC0FC
:100A20000E94090C89E793E00E94D50A89E793E0C8
:100A30000E94C30A89E793E00E94D50AC12CD12CF9
:100A40007601C39404C0CC0CDD1CEE1CFF1CCA95BF
:100A5000D2F7C114D104E104F10409F429C3D5018A
:100A6000C4018C219D21AE21BF21892B8A2B8B2B88
:100A700049F089E793E00E94C30A89E793E00E9466
:100A8000D50A08C089E793E00E94D50A89E793E078
:100A90000E94C30AF694E794D794C794DACF0E94D1
:100AA000090C8AE69AE00E94D50A89E793E00E9441
:100AB000C30A8CEB91E00E94D50A8CEB91E00E9476
:100AC000C30AC12CD12C7601C39404C0CC0CDD1C0C
:100AD000EE1CFF1CCA95D2F7412C512C32014394D5
:100AE000C114D104E104F10409F4E2C284E048161F
:100AF00051046104710419F0CCEBD1E002C0C8E7E5
:100B0000D3E0D501C4018C219D21AE21BF21892BC9
:100B10008A2B8B2B39F0CE010E94D50ACE010E9480
:100B2000C30A06C0CE010E94C30ACE010E94D50AA4
:100B30002FEF421A520A620A720AF694E794D79487
:100B4000C794CECFAE01002321F06FEF7FEFCB0132
:100B500002C0C501B4010E94320C7BC388E290E060
:100B60000E94090C80E699E00E94D50A88E592E08F
:100B70000E94C30A2197C12CD12C7601C39404C0D2
:100B8000CC0CDD1CEE1CFF1CCA95D2F7C114D1049D
:100B9000E104F10409F45DC3D501C4018C219D2158
:100BA000AE21BF21892B8A2B8B2B19F080EB94E08F
:100BB00002C088E592E00E94D50A88E592E00E9492
:100BC000C30AF694E794D794C794E0CF83E290E009
:100BD0000E94090C8EEA9DE00E94D50A86ED96E0FF
:100BE0000E94C30AC0E1D0E0412C90E8592E612C4C
:100BF000712C6701E12CF12C86EF91E00E94D50A5F
:100C0000D701C60184219521A621B721892B8A2BE2
:100C10008B2B19F08CED94E002C080E991E00E94EA
:100C2000C30A7694679457944794219729F7C0E2B2
:100C3000D0E0C12CD12CE12C00E8F02E86EF91E021
:100C40000E94D50AD501C4018C219D21AE21BF216E
:100C5000892B8A2B8B2B19F08CED94E002C080E954
:100C600091E00E94C30AF694E794D794C794219721
:100C700029F786EF91E01AC286E290E00E94090C03
:100C800080E49FE10E94D50A80EA9FE00E94C30AA7
:100C90002197C12CD12C7601C39404C0CC0CDD1C4F
:100CA000EE1CFF1CCA95D2F7C114D104E104F10473
:100CB000F1F0D501C4018C219D21AE21BF21892BEA
:100CC0008A2B8B2B39F088E592E00E94D50A80E4CC
:100CD00096E006C088E592E00E94D50A86E292E09E
:100CE0000E94C30AF694E794D794C794DDCF88E5B1
:100CF00092E0DCC186E290E00E94090C88E893E172
:100D00000E94D50A88E893E10E94C30A2197C12C6A
:100D1000D12C7601C39404C0CC0CDD1CEE1CFF1C4E
:100D2000CA95D2F7C114D104E104F104F1F0D50160
:100D3000C4018C219D21AE21BF21892B8A2B8B2BB5
:100D400039F080E392E00E94D50A80E496E006C084
:100D500080E392E00E94D50A80E392E00E94C30AF9
:100D6000F694E794D794C794DDCF80E392E09EC1D8
:100D700086E290E00E94090C8EEE92E00E94D50A75
:100D80008EEE92E00E94C30A82E29BE00E94D50AA6
:100D900082E29BE00E94C30A2197C12CD12C7601EC
:100DA000C39404C0CC0CDD1CEE1CFF1CCA95D2F70A
:100DB000C114D104E104F104F1F0D501C4018C2186
:100DC0009D21AE21BF21892B8A2B8B2B39F08EEEF2
:100DD00092E00E94D50A86E698E006C08EEE92E088
:100DE0000E94D50A8EEE92E00E94C30AF694E79420
:100DF000D794C794DDCF8EEE92E00E94D50A8EEE96
:100E000092E00E94C30A25C286E290E00E94090C8B
:100E100080E692E20E94D50A84E991E10E94C30A29
:100E2000CAE1D0E0C12CD12CE12C52E0F52E84EFA8
:100E300091E00E94D50AD701C601807C9E7EA772F0
:100E4000B270892B8A2B8B2B19F088E592E002C0B7
:100E500084EA96E00E94C30AF694E794D794C79474
:100E6000219729F7880C991CCFE0D0E084EF91E01E
:100E70000E94D50A97FE03C088E592E002C084EA8A
:100E800096E00E94C30A880C991C219779F784EF99
:100E900091E00E94D50A84EA96E00E94C30A84EF9A
:100EA00091E004C186E290E00E94090C80E49FE199
:100EB0000E94D50A80EA9FE00E94C30A88E592E07A
:100EC0000E94D50A2197C12CD12C7601C39404C06D
:100ED000CC0CDD1CEE1CFF1CCA95D2F7C114D1044A
:100EE000E104F10409F4E4C0D501C4018C219D2181
:100EF000AE21BF21892B8A2B8B2B19F080E496E041
:100F000002C086E292E00E94C30A88E592E00E9455
:100F1000D50AF694E794D794C794E0CF88E390E09D
:100F20000E94090C80E991E00E94D50A84ED97E1C6
:100F30000E94C30A2197C12CD12C7601C39404C00E
:100F4000CC0CDD1CEE1CFF1CCA95D2F7C114D104D9
:100F5000E104F104F1F0D501C4018C219D21AE2101
:100F6000BF21892B8A2B8B2B39F080E991E00E94DD
:100F7000D50A84EA96E006C080E991E00E94D50A8D
:100F800080EF9AE00E94C30AF694E794D794C7943E
:100F9000DDCF80E991E00E94D50A5BC186E290E056
:100FA0000E94090C2197412C512C3201439404C01A
:100FB000440C551C661C771CCA95D2F7C3E0D0E0E0
:100FC00073016201C114D104E104F104F1F0D7010D
:100FD000C60188219921AA21BB21892B8A2B8B2B21
:100FE00039F085EF90E00E94D50A8DE097E006C0C9
:100FF00085EF90E00E94D50A8BE193E00E94C30A3E
:10100000F694E794D794C794DDCF85EF90E00E94E3
:10101000D50A8BE193E00E94C30A68E270E080E0A9
:1010200090E00E94B00C809453E09526219741F601
:1010300010C186E290E00E94090C8CE291E00E94CF
:10104000D50A8EEE92E00E94C30A2197C12CD12CC2
:101050007601C39404C0CC0CDD1CEE1CFF1CCA95A9
:10106000D2F7C114D104E104F104F1F0D501C401B7
:101070008C219D21AE21BF21892B8A2B8B2B39F00E
:101080008CE291E00E94D50A88E097E006C08CE2ED
:1010900091E00E94D50A8EEE92E00E94C30AF69477
:1010A000E794D794C794DDCF8CE291E00E94D50AF3
:1010B0008091B0008F7D8093B000CBC086E290E03D
:1010C0000E94090C909261058092600581E08093F6
:1010D0006205109263051092640520E130E08EE114
:1010E0009FE040E050E860E070E0AA24BB24750176
:1010F0006401C422D522E622F722CD28CE28CF28AB
:1011000019F0875D9D4F02C0895F9E4F7695679568
:10111000579547952150310951F78E5F9B4F90931A
:1011200066058093650522E0C22E24E0D22EE12CD4
:10113000F12C32E8832E3CE3932EAA24A394B12C05
:10114000C0E1D0E001E010E08EE990E00E94D50A15
:1011500080916305882309F454C08131C0F49E0155
:10116000281B3109C901980102C0220F331F8A953B
:10117000E2F7809160059091610582239323892B8A
:1011800019F487E091E041C089E292E03EC080918D
:1011900062058823B1F180916405823068F4809102
:1011A000650590916605A5019401281B390B41093D
:1011B0005109DA01C90129C08250823010F58091AD
:1011C0006105282E22948FE02822312CD101A370B2
:1011D000BB271496AA0FBB1F8091650590916605E9
:1011E00026013701481A590A6108710820E83EE3D0
:1011F0000E94241CDC01CB01840D951DA61DB71D8A
:1012000004C082E094E0A0E0B0E00E94C30A8091B4
:1012100063058F5F80936305823138F080916405A8
:101220008F5F809364051092630580916405882325
:1012300009F48ACF90916205992359F0853048F4DA
:1012400083CF60E087E00E94880B86E392E00E94F3
:10125000740A60E087E0DF91CF911F910F91FF90BA
:10126000EF90DF90CF90BF90AF909F908F907F9046
:101270006F905F904F903F902F900C94880BDC0103
:10128000ED91FC9111972081222331F0213224F439
:101290003196ED93FC93F3CF0895EF92FF920F9365
:1012A0001F93CF93DF9300D0CDB7DEB78C017B01C6
:1012B0000E943F09F801808191819A838983A70167
:1012C000BE016F5F7F4F0E94121829813A81F80199
:1012D000408151814217530791F486E292E00E94C7
:1012E000470AF801808191810E94620A82E191E0BF
:1012F0000E94620A60E070E080E090E003C0F801C4
:10130000318320830F900F90DF91CF911F910F9128
:10131000FF90EF900895CF92DF92EF92FF920F939C
:101320001F93CF93DF936115710511F480E021C005
:10133000DB012C912223D1F38B017C010E943F0918
:10134000F80101900020E9F73197EF01C01BD10BA4
:10135000F701C080D180AE01B801C6010E94721CA5
:10136000892B21F7F601EC0FFD1FD701ED93FC93BC
:1013700081E0DF91CF911F910F91FF90EF90DF906F
:10138000CF9008958295982F9C7C392F369536956D
:10139000282F237344E0249FC0011124932F982BFE
:1013A000292F2A7A2695892F8575880F822B0895F3
:1013B00010925F05019781319105E8F58B5B9F4F96
:1013C000FC014BE050E00C941E1C62E272E02FC066
:1013D0006EE172E02CC06AE172E029C065E172E062
:1013E00026C06BE072E023C067E072E020C06FEFC0
:1013F00071E01DC067EF71E01AC062EF71E017C0C5
:101400006FEE71E014C069EE71E011C06EED71E035
:101410000EC069ED71E00BC063ED71E008C06DECCA
:1014200071E005C066EC71E002C061EC71E084E53A
:1014300095E00C94311980E090E00895833081F0BC
:1014400028F4813099F08230A1F008958730A9F016
:101450008830B9F08430D1F4809180008F7D03C052
:10146000809180008F7780938000089584B58F7776
:1014700002C084B58F7D84BD08958091B0008F77C0
:1014800003C08091B0008F7D8093B00008950F93CA
:101490001F93CF93DF938C01C0E0D0E0F801EC0FF5
:1014A000FD1F6491662341F08EE795E00E941602CD
:1014B000892B11F02196F2CFCE01DF91CF911F91B0
:1014C0000F910895009769F0FC0101900020E9F761
:1014D0003197AF01481B590BBC018EE795E00C9486
:1014E0007F0180E090E00895CF93DF930E94470A48
:1014F000EC0182E191E00E94620A8C0F9D1FDF9156
:10150000CF9108958F929F92AF92BF920F931F93A6
:10151000CF93DF93CDB7DEB7A1970FB6F894DEBFB8
:101520000FBECDBF19A2423008F44AE08E010F5D14
:101530001F4F842E912CA12CB12CA50194010E9447
:101540005319E62FB901CA0101501109EA3014F408
:10155000E05D01C0E95CD801EC93232B242B252B03
:1015600061F7C8010E94620AA1960FB6F894DEBF27
:101570000FBECDBFDF91CF911F910F91BF90AF9064
:101580009F908F9008952091B0002F7D2093B00000
:10159000009751F0BC0180E090E065307105810555
:1015A000910510F00C94E90208952091B00020629A
:1015B0002093B000009751F0BC0180E090E06530CE
:1015C00071058105910510F00C94E90208958F9240
:1015D0009F92AF92BF92CF92DF92EF92FF920F93C2
:1015E0001F93CF93DF93FC0120813181E091790536
:1015F000F0917A052E173F070CF04FC0F901EE0F5E
:10160000FF1FA0917705B0917805EA0FFB1FA0801E
:10161000B180217033276901F1E0CF26232B19F423
:101620002CE93FEF02C024E630E07A018B01EC01A7
:101630004901840E951EB401C5010E94D603892B71
:1016400099F48E0C9F1CB401C5010E94D603892B0E
:1016500071F4B701680D791DC5010E94D603892B6D
:10166000F9F023E030E005C021E030E002C022E0E4
:1016700030E0F801808191810196821793071CF474
:101680009183808308C0F80111821082888199813A
:10169000019699838883C60105C081E090E002C06D
:1016A0008FEF9FEFDF91CF911F910F91FF90EF9000
:1016B000DF90CF90BF90AF909F908F900895CF9381
:1016C000DF93282F30E0F901ED56FD4F8491F901A9
:1016D000E158FD4FD491F901E559FD4FC491CC2358
:1016E00091F081110E941E0AEC2FF0E0EE0FFF1F17
:1016F000EF59FD4FA591B491EC91ED2381E090E07D
:1017000021F480E002C080E090E0DF91CF91089565
:101710001F93CF93DF93282F30E0F901ED56FD4F53
:101720008491F901E158FD4FD491F901E559FD4F3C
:10173000C491CC23C1F0162F81110E941E0AEC2FF8
:10174000F0E0EE0FFF1FE95AFD4FA591B4919FB74E
:10175000F894111104C08C91D095D82302C0EC915B
:10176000DE2BDC939FBFDF91CF911F910895CF9324
:10177000DF9390E0FC01E158FD4F2491FC01E55915
:10178000FD4F8491882361F190E0880F991FFC013F
:10179000E35BFD4FC591D491FC01E95AFD4FA59142
:1017A000B491611109C09FB7F89488812095822374
:1017B0008883EC912E230BC0623061F49FB7F894BC
:1017C0008881322F309583238883EC912E2B2C93A4
:1017D0009FBF06C08FB7F894E8812E2B28838FBF58
:1017E000DF91CF910895F89482E08093B0008093C8
:1017F000B10094E69093B3001092B2008093700011
:101800007894EBE1F6E080831482818160E00C94AF
:10181000B70BCF93DF93EC011092700061E083E08F
:101820000E94B70B60E083E00E94880B9E01DD0FF1
:10183000440B550B60E47FE180E090E00E94FF1BC9
:1018400081E08093B00089E08093B1002093B300E1
:101850008BEA289F212D112426952093B400DF9137
:10186000CF9108958F929F92AF92BF92CF92DF92C5
:10187000EF92FF924B015C017A0186E290E00E94B8
:10188000090C88E293E20E94D50A84E991E10E9462
:10189000C30AC7010197C12CD12C7601C39404C09F
:1018A000CC0CDD1CEE1CFF1C8A95D2F7C114D104B0
:1018B000E104F104F1F0D701C60188219921AA21A0
:1018C000BB21892B8A2B8B2B39F080E392E00E947D
:1018D000D50A8AE996E006C080E392E00E94D50A24
:1018E00080E392E00E94C30AF694E794D794C794E9
:1018F000DDCF80E392E00E94D50A8091B0008F7D19
:101900008093B000FF90EF90DF90CF90BF90AF90AA
:101910009F908F9008953FB7F8948091F30690912F
:10192000F406A091F506B091F60626B5A89B05C071
:101930002F3F19F00196A11DB11D3FBFBA2FA92F4E
:10194000982F8827820F911DA11DB11DBC01CD01CB
:1019500042E0660F771F881F991F4A95D1F70895B7
:101960008F929F92AF92BF92CF92DF92EF92FF92AF
:101970006B017C010E948B0C4B015C01C114D104F2
:10198000E104F104F1F00E948B0CDC01CB01881919
:101990009909AA09BB09883E9340A105B10570F3D6
:1019A00021E0C21AD108E108F10888EE880E83E030
:1019B000981EA11CB11CC114D104E104F10419F753
:1019C000DDCFFF90EF90DF90CF90BF90AF909F90D2
:1019D0008F9008951F920F920FB60F9211242F939C
:1019E0003F938F939F93AF93BF938091EF06909116
:1019F000F006A091F106B091F2063091EE0623E0D8
:101A0000230F2D3720F40196A11DB11D05C026E836
:101A1000230F0296A11DB11D2093EE068093EF06C1
:101A20009093F006A093F106B093F2068091F3062E
:101A30009091F406A091F506B091F6060196A11DCD
:101A4000B11D8093F3069093F406A093F506B0932E
:101A5000F606BF91AF919F918F913F912F910F907B
:101A60000FBE0F901F901895CF93DF93CDB7DEB7C1
:101A70002F970FB6F894DEBF0FBECDBF789484B514
:101A8000826084BD84B5816084BD85B5826085BD7A
:101A900085B5816085BD80916E00816080936E0008
:101AA00010928100809181008260809381008091FA
:101AB00081008160809381008091800081608093AB
:101AC00080008091B10084608093B1008091B0006B
:101AD00081608093B00080917A00846080937A0066
:101AE00080917A00826080937A0080917A00816090
:101AF00080937A0080917A00806880937A001092B7
:101B0000C100E0918E05F0918F0582E08083E09125
:101B10008A05F0918B051082E0918C05F0918D057E
:101B200080E1808310929605E0919205F0919305F3
:101B300086E08083E0919005F0919105808180613D
:101B40008083E0919005F091910580818860808389
:101B5000E0919005F0919105808180688083E0910B
:101B60009005F091910580818F7D808361E087E011
:101B70000E94B70B62E084E00E94B70B61E086E050
:101B80000E94B70B62E085E00E94B70B0E94F30B46
:101B90008CEA90E00E94740A00E2202E312C84E04E
:101BA0000E945F0B7C0185E00E945F0B8C0180919D
:101BB0005305813049F4E114F10431F489EB91E0EB
:101BC0000E94740A0E94F30BE09253058091520523
:101BD000813049F40115110531F481EB91E00E9447
:101BE000740A0E94F30B0093520512E2C12E16E014
:101BF000D12ED0927805C092770580911F0690E093
:101C000090937A05809379058091EC0690E090930B
:101C10007C0580937B0580911B06853009F085C18A
:101C20008091240690912506885891098D3591055B
:101C300088F480911F06843041F4809126069091AB
:101C400027068097479708F467C280911F0684345F
:101C500008F049C280911F068A3108F4BFC2809102
:101C6000220690912306843F914080F410927605DD
:101C7000109275058FEF9FEFDC01809371059093B3
:101C80007205A0937305B093740544C08091240637
:101C90009091250685974B9708F0A0C2E8E2F6E000
:101CA00082E090E0812C912C5401AC014F5F5F4F9A
:101CB00020911F0630E0421753075CF4DF011297B2
:101CC0002D913C91275031092730310508F46AC223
:101CD000CA01019795958795909376058093750530
:101CE0000C972CF4109276051092750577C28092AD
:101CF000710590927205A0927305B092740584E00C
:101D000090E015C08092710590927205A0927305C3
:101D1000B09274058BE090E00AC040937105509337
:101D2000720560937305709374058CE090E0909356
:101D30006E0580936D0561E086E00E94880B8091BE
:101D40006D0590916E050E94D8098C01892B19F4BC
:101D500089E091E008C080917B0590917C05892BFA
:101D600029F084EF90E00E94740AD0C080916D0544
:101D700090916E05039709F051C080907105909085
:101D80007205A0907305B0907405EFEF8E169E0655
:101D9000AE06BE0619F48BEC90E0E5CF8B2D0E94C9
:101DA000C209582E8A2D0E94C209682E892D0E94D0
:101DB000C209782E882D0E94C209EE24EA94F12CE3
:101DC00097012719310990E02817390739F585EC73
:101DD00090E00E94470A652D70E080E090E04AE0C4
:101DE0000E94820A83EC90E00E94470AE518F108FD
:101DF000862D90E0E816F90659F0662D70E080E037
:101E000090E04AE00E94820A81EC90E00E94470A3A
:101E1000672D70E080E090E04AE072C08FEE90E0C5
:101E20000E94470AC8010E94620A8DEE90E00E945B
:101E3000470A8091710590917205A0917305B09148
:101E400074058F3F9F4FAF4FBF4F19F486EE90E060
:101E50008ACF80916D0590916E05059789F480EE8B
:101E600090E00E94470A60916F057091700580E0D4
:101E700090E040E10E94820A8EED90E00E94470AC5
:101E8000209175053091760580916D0590916E05D4
:101E9000069719F480E190E002C080E290E02817F4
:101EA000390729F189ED90E00E94470A8090750575
:101EB00090907605092C000CAA08BB08B7FE0EC04E
:101EC0006DE28EE795E00E94160266277727CB0128
:101ED000681979098A099B094AE003C04AE0C501EB
:101EE000B4010E94820A87ED90E00E94470A609147
:101EF000710570917205809173059091740540E1B0
:101F00000E94820A82E191E00E94620A68EC70E01D
:101F100080E090E00E94B00C82E080931B0610925B
:101F20001F0660E086E00E94880B8EE795E00E9425
:101F3000DE01181619060CF0D3C08EE795E00E945A
:101F4000BC0120915005309151058D3019F08A3037
:101F500009F0ADC0C90101978E3F934008F0A2C0BF
:101F6000F901E05BFE4F108280E591E098878F8356
:101F700080E190E00E94D809BC01CE0107960E9442
:101F80008B090F811885882309F494C61E830D835D
:101F9000780160E270E08D819E810E94671C9E83C3
:101FA0008D83009761F040E150E0BE016B5F7F4F91
:101FB0000E941218D7016D937D937D01EACF61E0F5
:101FC00087E00E94880B10934F0100934E012998DF
:101FD000219A1092800010928100F8016281738131
:101FE00080E090E00E94E01A20E030E040E851E418
:101FF0000E94921B21E339E047E75EE30E94921BB7
:1020000020E030E040E85FE30E94C6190E94B11A68
:10201000709387006093860076956795709389002A
:102020006093880082E08093800088E18093810043
:10203000109285001092840016BA91E090936F0080
:1020400084E080934D0110924C0110924B018091DD
:102050008000806C8093800090934A018091810081
:1020600081608093810064E670E080E090E00E94EF
:10207000B00C109280001092810060E087E00E9416
:10208000880B8BC760E471E0CE0107960E948B0934
:10209000182F8111F2CF86E891E00E94740A0E9405
:1020A000F30B1B87109251051092500519C02F3F5A
:1020B00043E0340728F4F901E05BFE4F808307C05A
:1020C0002F3F334021F484E991E00E94740A80910B
:1020D00050059091510501969093510580935005BC
:1020E0000E9485025CCD809126069091270682543D
:1020F00091098E9708F0AECD80E090E040E050E08E
:10210000BA01FC01E85DF94F208131812950310984
:1021100029303105D0F09ECD809128069091290676
:102120000997099708F091CD1092760510927505E0
:10213000CC24CA94DC2C7601C0927105D092720531
:10214000E0927305F09274052AC7FC01E65DF94F31
:10215000208131812751310922313105E8F0208178
:102160003181265031092730310508F073CD440FF5
:10217000551F661F771F04968038910511F630921F
:102180007605209275054093710550937205609312
:1021900073057093740503C7440F551F661F771F9F
:1021A0004160E9CF20813181235131092F30310540
:1021B00048F4880C991CAA1CBB1C689480F80296F1
:1021C000349673CD208131812A503109293031056F
:1021D00028F4880C991CAA1CBB1CF1CF80911F0607
:1021E0008A3108F45DC080912206909123068032E6
:1021F000934008F43BCD8091240690912506C69724
:10220000869708F04DC08091260690912706C697C4
:10221000869708F045C0EAE2F6E083E090E0812C82
:10222000912C5401AC014F5F5F4F20911F0630E0AD
:102230004217530754F4DF0112972D913C912C5013
:1022400031092B30310580F0CA01019795958795AA
:1022500090937605809375050C970CF053CD1092F2
:102260007605109275051CC02081318125523109F7
:102270002B31310548F4880C991CAA1CBB1C6894AE
:1022800080F802963496CECF208131812C503109CE
:102290002A30310528F4880C991CAA1CBB1CF1CFEC
:1022A00080911F06823208F44DC0809124069091DF
:1022B00025060697079708F045C0E8E2F6E082E0B9
:1022C00090E040E050E0BA018C010F5F1F4F209179
:1022D0001F0630E002171307C4F4DF0112972D9197
:1022E0003C9111972E51310927313105E8F4440F03
:1022F000551F661F771F416020813181349623501E
:10230000310925303105E0F0C80101979595879591
:10231000909376058093750540970CF0FECC109253
:102320007605109275050EC02D913C912C50310907
:102330002B30310538F4440F551F661F771FDCCF53
:102340000296C2CF1A86198681E090E09E838D8323
:1023500080911F068D3078F41A86198681E090E00E
:102360009E838D838091790590917A0518161906C0
:102370000CF46CC0C3C049E753E0BE01675F7F4FF8
:10238000CE0105960E94E70A892B31F749E753E011
:10239000BE01675F7F4FCE0105960E94E70A019755
:1023A000D9F649E753E0BE01675F7F4FCE0105963E
:1023B0000E94E70A892B81F6812C912C540100E0C0
:1023C00010E080911F0690E02D813E81281739078B
:1023D00074F549E753E0BE01675F7F4FCE01059674
:1023E0000E94E70A7C0149E753E0BE01675F7F4F27
:1023F000CE0105960E94E70AB1E0EB16F10451F414
:10240000892B09F0A9CF880C991CAA1CBB1C6894C5
:1024100080F80AC0EF2809F09FCF019709F09CCF00
:10242000880C991CAA1CBB1C0F5F1F4FCACF1093AE
:102430007605009375058092710590927205A092C1
:102440007305B092740581E090E071CCE09177055E
:10245000F091780582E090E09E838D838281938164
:1024600089974E9708F04AC0A3E0B0E0BE83AD83E1
:10247000848195810B970A9708F040C04CEB51E09E
:10248000BE01675F7F4FCE0105960E94E70A892B48
:10249000A9F54CEB51E0BE01675F7F4FCE01059679
:1024A0000E94E70A019751F5412C512C320100E0BE
:1024B00010E02091790530917A058D819E818217F7
:1024C00093070CF026C14CEB51E0BE01675F7F4FD4
:1024D000CE0105960E94E70A5C010330110509F060
:1024E000E2C04CEB51E0BE01675F7F4FCE01059625
:1024F0000E94E70AA816B90609F4D5C0E09177054D
:10250000F091780582819381C6978697E0F4848163
:1025100095814B974597B8F4DF0116967F0126EC1D
:10252000E20EF11C20E030E040E050E060E070E0BE
:1025300080E090E00D911C9111970950110908302D
:10254000110508F4F5C080911F06893370F182816E
:102550009381895791098335910508F425C125C0D8
:10256000D90112966D917C91139766517109613171
:10257000710508F028C1D501C401880F991FAA1F51
:10258000BB1F4C015D01689480F84E5F5F4F2C5F6C
:102590003F4F4B33510509F425C1D9016D917C9111
:1025A0006A50710969307105D8F280911F06823234
:1025B00031F4828193810A97099708F430C18281AE
:1025C00093818957910983359105D0F480911F0635
:1025D0008132B0F084819581CA97899788F49F01F0
:1025E0002A5F3F4F812C912C540143E050E0D901E8
:1025F0006D917C916A5071096930710508F42EC1A2
:10260000828193818C549109C59778F480911F063B
:10261000843031F4848195818097479708F47EC196
:1026200080911F06843408F060C180911F068634B3
:1026300060F1828193810C970B9708F4BCC125C08F
:10264000D90112966D917C9113976E517109673182
:10265000710508F0E6C1D501C401880F991FAA1FB2
:10266000BB1F4C015D01689480F84E5F5F4F2C5F8B
:102670003F4F4534510509F4B9C1D9016D917C91A1
:102680006C5071096B307105D8F280911F06883546
:1026900008F42FC282819381855891098B35910569
:1026A00008F4CFC126C24CEB51E0BE01675F7F4FFB
:1026B000CE0105960E94E70A7C010330110569F4FA
:1026C0004CEB51E0BE01675F7F4FCE0105960E9443
:1026D000E70AE816F90609F011CFA114B10459F47C
:1026E000EA94EF2809F00ACF440C551C661C771CAD
:1026F000689440F80BC0AA94AB2809F0FFCEEF28ED
:1027000009F0FCCE440C551C661C771C0F5F1F4F54
:10271000D0CE1093760500937505409271055092C6
:102720007205609273057092740582E090E0FFCAB2
:1027300012960D911C911397015111090D3011053D
:1027400070F112960D911C911397045011090530E8
:10275000110508F0F8CE01E00E942B1C1496AE156E
:10276000BF0509F0E7CE20937105309372054093C1
:1027700073055093740500E20E94461C20936F0578
:102780003093700585E090E090936E0580936D0521
:1027900080E390E09093760580937505CCCA01E0C4
:1027A0000E942B1C2160DACF84819581CA9789977A
:1027B00008F0FBCE9F012A5F3F4F812C912C5401E2
:1027C00043E050E0EACE12966D917C9113976650EB
:1027D00071096730710508F0E8CE880C991CAA1CB5
:1027E000BB1CD3CE9F012A583F4FD9012D913C915C
:1027F0002A5031092930310508F0D7CE2CE130E0DC
:10280000309376052093750580927105909272053C
:10281000A0927305B09274058AE090E088CA209176
:102820001F06CF01820F911D820F911DDC011297AF
:102830008D919C910A97099708F0C1CE1092760568
:10284000109275058FEF9FEFDC01809371059093D7
:102850007205A0937305B0937405AAC3D9011296AB
:102860006D917C911397665171096131710568F51D
:10287000D501C401880F991FAA1FBB1F4C015D0120
:10288000689480F84E5F5F4F2C5F3F4F4332510595
:1028900009F0ADCE9F012A5B3F4FD9012D913C91AC
:1028A0002A5031092930310508F0AACEE0E1F0E0E4
:1028B000F0937605E093750580927105909272050C
:1028C000A0927305B092740573C3D90112966D91ED
:1028D0007C911397665071096730710508F090CEAE
:1028E000880C991CAA1CBB1CCDCF8481958189546E
:1028F0009109C39708F099CE9F012A5F3F4FBF010E
:102900006A577F4F812C912C5401D9014D915C91D4
:102910004950510949305105C0F087CE86819781D1
:102920000997099708F07CCE1092760510927505EC
:10293000CC24CA94DC2C7601C0927105D092720529
:10294000E0927305F092740537C3D90112964D9148
:102950005C9113974651510941315105E0F4D5017D
:10296000C401880F991FAA1FBB1F4C015D01689409
:1029700080F82C5F3F4F2617370739F630927605DF
:10298000209275058092710590927205A092730550
:10299000B092740511C3D90112964D915C911397B1
:1029A000465051094730510508F03FCE880C991C1C
:1029B000AA1CBB1CDECF848195810997099708F07A
:1029C00064CE868197818C974F9708F05ECE808584
:1029D000918589974D9708F058CE9F01265F3F4F0C
:1029E000812C912C540145E050E047CE9F012657A1
:1029F0003F4FD9012D913C912C5031092B3031059D
:102A000008F043CE309276052092750580927105CC
:102A100090927205A0927305B092740588E090E0E0
:102A200086C9D90112966D917C91139769507109ED
:102A30006930710508F029CE880C991CAA1CBB1CB2
:102A400014CE84819581825491098E9708F051C0EB
:102A50008F01045C1F4F8DE190E020E030E0409159
:102A60001F0650E04450510984179507ACF4A801A3
:102A700042505109DA014D915C9149505109483059
:102A8000510510F136C0D8014D915C914851510962
:102A90004231510558F1CB01019795958795909357
:102AA0007605809375058A9724F1C901330FAA0B27
:102AB000BB0B8093710590937205A0937305B0933F
:102AC000740589E090E033C9BC016F5F7F4FD80186
:102AD0004D915C914750510947305105A0F6220FA6
:102AE000331F216002960C5F1F4FB9CF220F331F97
:102AF000F9CF80911F068032E1F48281938106979D
:102B00000697B8F4848195810997099790F49F01FD
:102B10002A5F3F4FBF01625C7F4F812C912C540193
:102B2000D9014D915C91465051094630510508F448
:102B300080C0C0907905D0907A05B6E0CB16D1045C
:102B40000CF4B2C08F010E5F1F4FB5EC8B2EBDE9A8
:102B50009B2EBCE1AB2EB1E8BB2E83E0E82EF12C1E
:102B6000F80164817581208131813D872C8780E067
:102B700090E00E94E01A2B013C01AC85BD85BD01AF
:102B800080E090E00E94E01A6C877D878E879F87A7
:102B90002DEC3CEC4CE45FE30E94921B9B01AC01EA
:102BA000C301B2010E94331A87FD19C02DEC3CEC21
:102BB0004CE45FE3C301B2010E94921B9B01AC0194
:102BC0006C857D858E859F850E94331AE82F880F3E
:102BD000FF0BEE27FF0FEE1FFF27319602C0E0E04C
:102BE000F0E0A501940163E971E080E091E00E94CA
:102BF00043194F01FF0FAA08BB0886269726A8266F
:102C0000B926BFEFEB1AFB0A0E5F1F4FEC14FD0451
:102C100009F0A6CF8092710590927205A09273057B
:102C2000B092740530927605209275058FEF9FEF74
:102C30007EC8D90112964D915C9113974951510963
:102C40004331510508F5D501C401880F991FAA1F0A
:102C5000BB1F4C015D01689480F82C5F3F4F261725
:102C6000370709F05DCF2EE030E0309376052093F2
:102C700075058092710590927205A0927305B092CD
:102C800074058FE090E053C8D90112964D915C9184
:102C90001397495051094930510508F04ACF880C23
:102CA000991CAA1CBB1CD9CF82E080931B061092F2
:102CB0001F063BC9F8018081823529F4D80111969D
:102CC0008C91813449F0EF81F885FA83E983808122
:102CD0008E3409F03CC178C0F8018281873599F7BC
:102CE0000D5F1F4F18870F83CE0107960E943F0983
:102CF000A12CB12CC5010E94D809BC01CE010796B8
:102D00000E948B09882309F456C08F8198859C8383
:102D10008B8365E171E0CE0103960E948B098823C5
:102D200061F060E170E0CE0103960E944D097B01E5
:102D3000672B29F48FE691E030C0E12CF12C6BE198
:102D400071E0CE0103960E948B09882361F06AE04E
:102D500070E0CE0103960E944D094B01672B31F4C0
:102D60008CE591E01AC060E2862E912C60E271E061
:102D7000CE0103960E948B09811112C060E170E0C0
:102D8000CE0103960E944D09AB01BC0141155105CE
:102D90006105710551F487E491E00E94740AFDC059
:102DA00001E040E050E0BA0101C000E09401C5013B
:102DB0000E94B304F2C0FFEFAF1ABF0A22E1A216CD
:102DC000B10409F097CF7FCF8181853409F0BFC06E
:102DD0008281833409F0BBC083818153823008F043
:102DE000B6C03496FA83E983CE0101960E943F096A
:102DF000E981FA818081823591F48181853479F489
:102E0000E12CF12C01E020E230E04FEF5FEFBA015E
:102E100083E090E00E94B30431E03B87BEC06AE0EB
:102E200070E0CE0101960E944D096B017C01CE013C
:102E300001960E943F09E981FA8180818C3239F044
:102E400084E391E00E94740A41E04B87A6C031966A
:102E5000FA83E983412C512C32014A944C185D08C5
:102E60006E087F086AE070E0CE0101960E944D096D
:102E70004B015C01CE0101960E943F09E981FA8174
:102E800080818C3269F43196FA83E9836AE070E0DC
:102E9000CE0101960E944D09240135014B015C01D0
:102EA0008FEFC816D104E104F10409F070F49FEF2C
:102EB000491651046104710409F038F4AFEF8A1621
:102EC0009104A104B10449F040F08CE191E00E942A
:102ED000740ACB84CC20D9F160C08C2D0E94C20929
:102EE000182F842D0E94C209082F882D0E94C20924
:102EF00090E0A0E0B0E0402F50E060E070E0BA0168
:102F0000552744276A017B01F12A9701860144274E
:102F1000582F692F7A2F042B152B262B372B4FEF89
:102F200050E060E070E0481B590B6A0B7B0B402BB4
:102F3000512B622B732BE12CF12C00E020E230E0CE
:102F400083E090E00E94B30421E02B8726C067E273
:102F500071E0CE0107960E948B098B87882319F0B8
:102F600061E086E017C06FE271E0CE0107960E9433
:102F70008B09882319F060E086E081C868E371E07E
:102F8000CE0107960E948B098B87882309F47AC8A3
:102F900061E087E00E94880B1B861B8580C893E058
:102FA000E92EF12CF0926E05E0926D050C949B0ECB
:102FB00086E090E00C94970E87E090E00C94970EDA
:102FC000EEE7F5E01382128288EE93E0A0E0B0E035
:102FD00084839583A683B78384E091E09183808383
:102FE00085EC90E09587848784EC90E097878687CE
:102FF00080EC90E0918B808B81EC90E0938B828BC6
:1030000082EC90E0958B848B86EC90E0978B868B9E
:10301000118E128E138E148EEBE1F6E082E0818326
:1030200013820895A0E0B0E0E8E1F8E10C94811982
:103030005C016B017A016115710519F0FB01918347
:103040008083E114F10429F0C7010297839708F007
:10305000E5C0E5012196F5011081812F90E00E94E5
:103060002819892B11F05E01F4CF1D3229F4219625
:10307000F501118101E007C01B3221F4E501229620
:10308000F501118100E0E114F10409F1F0E1EF161E
:10309000F10429F43FC010E3E114F10421F128E028
:1030A000E216F10401F154F4E2E0EE16F10421F528
:1030B000812C912CA12CB0E4BB2E3EC0FAE0EF167F
:1030C000F10439F020E1E216F104B1F430C010331C
:1030D00019F1FAE0EF2EF12CACEC8A2E982CA82CEA
:1030E000ACE0BA2E29C078E0E72EF12C812C912C8F
:1030F000A12CE0E1BE2E20C060E070E080E090E80E
:1031000097010F2C000C440B550B0E9453194901D9
:103110005A0112C0103359F488818F7D883509F027
:10312000BACF19812296026080E1E82EF12C812C21
:10313000912CA12C68E0B62E40E060E070E0CB015D
:1031400027010F2C000C66087708FE0150ED352E84
:10315000310E29E0231570F42FEB210F2A3118F4DA
:1031600039EC332E06C02FE9210F2A3118F529EA50
:10317000322E310E232D30E02E153F05DCF447FDB5
:1031800016C086169706A806B90670F0A30192012C
:103190000E944319630D711D811D911D61307105E0
:1031A000810520E8920710F04FEF01C041E0219621
:1031B0001081CBCF202F2170C114D10471F0442392
:1031C00029F02197F601D183C08307C001FF19C000
:1031D0002297F601D183C08314C047FF12C0222377
:1031E00029F060E070E080E090E804C06FEF7FEFCE
:1031F0008FEF9FE722E230E03093F8062093F70646
:1032000009C0222381F090958095709561957F4F3C
:103210008F4F9F4F462F372F282F12C040E030E0AE
:1032200020E090E00DC097FFF5CF82E290E0909310
:10323000F8068093F7066FEF7FEF8FEF9FE7EACFF7
:10324000642F732F822FCDB7DEB7E1E10C949D1967
:1032500091110C944019803219F089508550C8F7AB
:103260000895FB01DC014150504048F005900D925B
:103270000020C9F701C01D9241505040E0F7089569
:10328000992788270895DB018F939F930E947519D2
:10329000BF91AF91A29F800D911DA39F900DB29FF2
:1032A000900D11240895A1E21A2EAA1BBB1BFD014B
:1032B0000DC0AA1FBB1FEE1FFF1FA217B307E40715
:1032C000F50720F0A21BB30BE40BF50B661F771F6D
:1032D000881F991F1A9469F760957095809590954D
:1032E0009B01AC01BD01CF0108950E94B719A59FB4
:1032F000900DB49F900DA49F800D911D11240895F1
:103300002F923F924F925F926F927F928F929F92F5
:10331000AF92BF92CF92DF92EF92FF920F931F93E3
:10332000CF93DF93CDB7DEB7CA1BDB0B0FB6F89494
:10333000DEBF0FBECDBF09942A88398848885F84D4
:103340006E847D848C849B84AA84B984C884DF8045
:10335000EE80FD800C811B81AA81B981CE0FD11D29
:103360000FB6F894DEBF0FBECDBFED010895A29F4A
:10337000B001B39FC001A39F700D811D1124911D49
:10338000B29F700D811D1124911D08955058BB27C7
:10339000AA270E94DE190C94581B0E944A1B38F081
:1033A0000E94511B20F039F49F3F19F426F40C942D
:1033B000471B0EF4E095E7FB0C94411BE92F0E949C
:1033C000691B58F3BA17620773078407950720F043
:1033D00079F4A6F50C948B1B0EF4E0950B2EBA2F06
:1033E000A02D0B01B90190010C01CA01A00111240B
:1033F000FF27591B99F0593F50F4503E68F11A16B7
:10340000F040A22F232F342F4427585FF3CF469547
:1034100037952795A795F0405395C9F77EF41F1669
:10342000BA0B620B730B840BBAF09150A1F0FF0F33
:10343000BB1F661F771F881FC2F70EC0BA0F621F1F
:10344000731F841F48F4879577956795B795F7950F
:103450009E3F08F0B0CF9395880F08F09927EE0FA4
:103460009795879508950E941D1B08F481E00895A3
:103470000E944C1A0C94581B0E94511B58F00E9439
:103480004A1B40F029F45F3F29F00C94411B511175
:103490000C948C1B0C94471B0E94691B68F39923A6
:1034A000B1F3552391F3951B550BBB27AA27621740
:1034B0007307840738F09F5F5F4F220F331F441F4D
:1034C000AA1FA9F335D00E2E3AF0E0E832D0915081
:1034D0005040E695001CCAF72BD0FE2F29D0660F6E
:1034E000771F881FBB1F261737074807AB07B0E8B1
:1034F00009F0BB0B802DBF01FF2793585F4F3AF0B7
:103500009E3F510578F00C94411B0C948C1B5F3F3F
:10351000E4F3983ED4F3869577956795B795F7953C
:103520009F5FC9F7880F911D9695879597F9089524
:10353000E1E0660F771F881FBB1F621773078407C0
:10354000BA0720F0621B730B840BBA0BEE1F88F7CF
:10355000E09508950E94B11A6894B1110C948C1BE7
:1035600008950E94711B88F09F5798F0B92F9927F2
:10357000B751B0F0E1F0660F771F881F991F1AF05E
:10358000BA95C9F714C0B13091F00E948B1BB1E01D
:1035900008950C948B1B672F782F8827B85F39F01C
:1035A000B93FCCF3869577956795B395D9F73EF4F7
:1035B00090958095709561957F4F8F4F9F4F08959F
:1035C000E89409C097FB3EF49095809570956195BD
:1035D0007F4F8F4F9F4F9923A9F0F92F96E9BB2773
:1035E0009395F695879577956795B795F111F8CFEF
:1035F000FAF4BB0F11F460FF1BC06F5F7F4F8F4F5A
:103600009F4F16C0882311F096E911C0772321F04F
:103610009EE8872F762F05C0662371F096E8862FE7
:1036200070E060E02AF09A95660F771F881FDAF73E
:10363000880F9695879597F90895990F0008550F6B
:10364000AA0BE0E8FEEF16161706E807F907C0F028
:1036500012161306E407F50798F0621B730B840B30
:10366000950B39F40A2661F0232B242B252B21F40A
:1036700008950A2609F4A140A6958FEF811D811DAA
:10368000089597F99F6780E870E060E008959FEFE4
:1036900080EC089500240A941616170618060906E9
:1036A000089500240A9412161306140605060895B8
:1036B000092E0394000C11F4882352F0BB0F40F440
:1036C000BF2B11F460FF04C06F5F7F4F8F4F9F4F80
:1036D000089557FD9058440F551F59F05F3F71F002
:1036E0004795880F97FB991F61F09F3F79F0879569
:1036F0000895121613061406551FF2CF4695F1DFF2
:1037000008C0161617061806991FF1CF8695710581
:10371000610508940895E894BB2766277727CB01B5
:1037200097F908950E94A51B0C94581B0E944A1BF0
:1037300038F00E94511B20F0952311F00C94411B8E
:103740000C94471B11240C948C1B0E94691B70F372
:10375000959FC1F3950F50E0551F629FF001729F36
:10376000BB27F00DB11D639FAA27F00DB11DAA1F45
:10377000649F6627B00DA11D661F829F2227B00D92
:10378000A11D621F739FB00DA11D621F839FA00D1D
:10379000611D221F749F3327A00D611D231F849F6D
:1037A000600D211D822F762F6A2F11249F575040C4
:1037B0009AF0F1F088234AF0EE0FFF1FBB1F661F3F
:1037C000771F881F91505040A9F79E3F510580F008
:1037D0000C94411B0C948C1B5F3FE4F3983ED4F394
:1037E000869577956795B795F795E7959F5FC1F7AC
:1037F000FE2B880F911D9695879597F90895052EB4
:1038000097FB1EF400940E94161C57FD07D00E94DF
:10381000531907FC03D04EF40C94161C5095409598
:10382000309521953F4F4F4F5F4F0895909580956C
:10383000709561957F4F8F4F9F4F0895EE0FFF1F3B
:103840000590F491E02D09940E94B719B7FF0895EF
:10385000821B930B08950F93083090F0982F872FB9
:10386000762F652F542F432F322F22270850F4CF65
:10387000220F331F441F551F661F771F881F991F74
:103880000A95B2F70F91089597FB10F81694000867
:103890000F93083098F00850232F342F452F562FC0
:1038A000672F782F892F902DF4CF059497958795C2
:1038B0007795679557954795379527950A95AAF770
:1038C0000F91089581E090E0F8940C94801CFC0125
:1038D0008191861721F08823D9F799270895319788
:1038E000CF010895FB01DC014150504030F08D9133
:1038F0000190801919F40020B9F7881B990B0895DD
:04390000F894FFCF69
:103904000000000016027F01AD016302DE01BC016C
:10391400D0010D0A00414444523A004C454E3A004D
:10392400524550454154004C454431204F4E004CC3
:10393400454431204F4646004C454432204F4E000A
:0A3944004C454432204F4646000077
:107E0000112484B714BE81FFF0D085E080938100F7
:107E100082E08093C00088E18093C10086E0809377
:107E2000C20080E18093C4008EE0C9D0259A86E02C
:107E300020E33CEF91E0309385002093840096BBD3
:107E4000B09BFECF1D9AA8958150A9F7CC24DD24C4
:107E500088248394B5E0AB2EA1E19A2EF3E0BF2EE7
:107E6000A2D0813461F49FD0082FAFD0023811F036
:107E7000013811F484E001C083E08DD089C08234E0
:107E800011F484E103C0853419F485E0A6D080C0E4
:107E9000853579F488D0E82EFF2485D0082F10E0AE
:107EA000102F00270E291F29000F111F8ED06801E7
:107EB0006FC0863521F484E090D080E0DECF843638
:107EC00009F040C070D06FD0082F6DD080E0C81688
:107ED00080E7D80618F4F601B7BEE895C0E0D1E017
:107EE00062D089930C17E1F7F0E0CF16F0E7DF06D8
:107EF00018F0F601B7BEE89568D007B600FCFDCFD4
:107F0000A601A0E0B1E02C9130E011968C91119780
:107F100090E0982F8827822B932B1296FA010C0160
:107F200087BEE89511244E5F5F4FF1E0A038BF0790
:107F300051F7F601A7BEE89507B600FCFDCF97BE46
:107F4000E89526C08437B1F42ED02DD0F82E2BD052
:107F50003CD0F601EF2C8F010F5F1F4F84911BD097
:107F6000EA94F801C1F70894C11CD11CFA94CF0C13
:107F7000D11C0EC0853739F428D08EE10CD085E9AC
:107F80000AD08FE07ACF813511F488E018D01DD067
:107F900080E101D065CF982F8091C00085FFFCCF94
:107FA0009093C60008958091C00087FFFCCF809118
:107FB000C00084FD01C0A8958091C6000895E0E648
:107FC000F0E098E1908380830895EDDF803219F02E
:107FD00088E0F5DFFFCF84E1DECF1F93182FE3DFCA
:107FE0001150E9F7F2DF1F91089580E0E8DFEE27F6
:047FF000FF270994CA
:027FFE00040479
:0400000300007E007B
:00000001FF
